:020000040800F2
:100000004038002071020008DF490008233E000844
:10001000DD490008110D00088D5A0008000000009D
:1000200000000000000000000000000095520008E1
:10003000230E000800000000B54F000845540008DA
:100040008B0200088B0200088B0200088B0200085C
:100050008B0200088B0200088B0200088B0200084C
:100060008B0200088B0200088B0200088B0200083C
:100070008B0200088B0200088B0200088B0200082C
:100080008B0200088B020008C10600088B020008E2
:100090008B0200088B0200088B0200088B0200080C
:1000A0008B0200088B0200088B0200088B020008FC
:1000B0008B0200088B0200088B0200088B020008EC
:1000C0008B0200088B0200088B0200088B020008DC
:1000D0008B020008755A0008815A00088B0200083C
:1000E0008B0200088B0200088B020008ED54000808
:1000F0008B0200088B0200088B0200088B020008AC
:100100008B0200088B0200088B0200088B0200089B
:100110008B020008015800088B0200088B020008BF
:100120008B0200088B0200088B0200088B0200087B
:100130008B0200088B0200088B0200088B0200086B
:100140008B0200088B0200088B0200088B0200085B
:100150008B0200088B0200088B0200088B0200084B
:100160008B0200088B0200088B0200088B0200083B
:100170008B0200088B0200088B02000800000000C0
:100180008B0200088B02000800F002F800F061F812
:100190000AA090E8000C82448344AAF10107DA45E2
:1001A00001D100F056F8AFF2090EBAE80F0013F0D3
:1001B000010F18BFFB1A43F001031847ACA400005D
:1001C000CCA400000A444FF0000C10F8013B13F0DF
:1001D000070408BF10F8014B1D1108BF10F8015BA0
:1001E000641E05D010F8016B641E01F8016BF9D193
:1001F00013F0080F1EBF10F8014BAD1C0C1B09D1EA
:100200006D1E58BF01F801CBFAD505E014F8016B5B
:1002100001F8016B6D1EF9D59142D6D370470000ED
:100220000023002400250026103A28BF78C1FBD8FF
:10023000520728BF30C148BF0B607047642900F0E7
:10024000EF80002070471FB508F051FE1FBD10B5AC
:1002500010BD00F007FA1146FFF7F5FF07F00CF9A3
:1002600000F025FA03B4FFF7F2FF03BC06F0D4FF59
:100270000948804709480047FEE7FEE7FEE7FEE73A
:10028000FEE7FEE7FEE7FEE7FEE7FEE70448054976
:10029000054A064B70470000DD540008890100083C
:1002A00040320020403800204034002040340020FC
:1002B00053EA020C00F069802DE9F04B4FF0000684
:1002C000002B1FBFB3FA83F503FA05F424FA05F6F1
:1002D0005E4012BF1643B2FA82F502FA05F4C5F188
:1002E00020051EBF22FA05FC44EA0C04203556EA1C
:1002F000044C4FEA144418BF641C4FF000084FF040
:100300000009904271EB030C39D3002919BFB1FAEF
:1003100081F701FA07F6B0FA80F700FA07F6C7F19D
:1003200020071EBF20FA07FC46EA0C062037B6FB62
:10033000F4FCA7EB0507103F07F01F0BCBF12006DD
:100340000CFA0BFB2CFA06F644BFB3460026202F0E
:10035000A4BF5E464FF0000B5BEA060C08BF4FF0EF
:10036000010B19EB0B09ABFB027C48EB0608C01B29
:1003700006FB02CC0BFB03CC71EB0C01C1E70B4677
:10038000024641464846BDE8F08B13B54FF00000E9
:100390004FF00001AFF30080BDE81C407047000043
:1003A0000FB4044910B503AA029800F025F910BC57
:1003B0005DF814FB340000202DE9F0410E460446A0
:1003C000002020622046E168884730B3252805D008
:1003D000D4E901219047206A401CF2E7E1682046F9
:1003E00000278847050018D0A5F14100192802D838
:1003F00020354FF400673246294620462760FFF734
:100400001DFF40B1012804D0F61D26F0070608366E
:10041000D8E7361DD6E72846DAE7206ABDE8F0813E
:100420002DE9F0410646002410687529314616A5CD
:1004300010D0AFF30080002802DA404213A507E095
:1004400031688A0701D512A502E0490704D511A534
:10045000012401E0AFF3008000210A2206F1240705
:1004600009E0B0FBF2FCB0FBF2F302FB1C00303001
:1004700078541846491C0028F3D123462A463046B2
:10048000BDE8F04100F05FB8000000002D00000062
:100490002B000000200000004FF000020429C0F0F3
:1004A000128010F0030C00F01B80CCF1040CBCF1A6
:1004B000020F18BF00F8012BA8BF20F8022BA1EBF8
:1004C0000C0100F00DB85FEAC17C24BF00F8012BDD
:1004D00000F8012B48BF00F8012B70474FF00002D5
:1004E00000B5134694469646203922BFA0E80C502A
:1004F000A0E80C50B1F12001BFF4F7AF090728BF05
:10050000A0E80C5048BF0CC05DF804EB890028BF80
:1005100040F8042B08BF704748BF20F8022B11F0A9
:10052000804F18BF00F8012B704770477047704725
:1005300010B500F073F8006810BD10B5044600F067
:100540006DF8046010BD2DE9F0470D4699469246BE
:10055000044600F124080168880604D5E06921F00A
:100560001001216000E00120A84201DD471B00E0EE
:100570000027A1697A1902EB0900081AA061207806
:10058000C00602D42046AFF30080002608E0D4E97C
:1005900001211AF806009047206A401C761C206250
:1005A0004E45F4DB2078C0060AD52046AFF3008024
:1005B00006E0D4E9012130209047206A401C2062E7
:1005C000381EA7F10107F4DC07E0D4E9012118F88F
:1005D00005009047206A401C2062281EA5F10105F5
:1005E000F3DC2046AFF300802078000602D502201D
:1005F000BDE8F0870120FBE7074B70B50D467B4453
:1006000000F015F80446284600F024F810B14FF029
:10061000FF3070BD204670BDFF6D00000048704780
:10062000DC31002001694A1C02610878704700B57E
:100630008FB0CDE901310021059105497944CDE91B
:10064000031011466846FFF7B7FE0FB000BD00006B
:10065000E5FFFFFF007B00F0800070470048704717
:10066000DC3100207546FFF7F9FFAE46050069460C
:10067000534620F00700854618B020B5FFF706FE68
:10068000BDE820404FF000064FF000074FF0000893
:100690004FF0000B21F00701AC46ACE8C009ACE814
:1006A000C009ACE8C009ACE8C0098D46704710B578
:1006B0000446AFF300802046BDE81040FFF7D2BDEE
:1006C000014801F05ABA00004C030020464910B519
:1006D0004A6822F440324A604A6843681A434A60D2
:1006E00001684A6822F480724A6001684A680369B6
:1006F00042EA03224A6001684A6822F040724A6076
:1007000001684A6883681A434A6001688A6822F46B
:1007100000628A6001688A68C3681A438A60816AD5
:100720006FF07062D14201688A6822F070628A605C
:1007300001688A680CD0836A1A438A6001688A68F3
:1007400022F040528A6001688A68C36A1A4301E055
:1007500022F040528A6001688A6822F002028A60B0
:1007600001688A68037E42EA43028A6090F820109A
:10077000002901684A680FD042F400624A600168AB
:100780004A6822F460424A6001684A68174C436A2A
:1007900004EB43331A4301E022F400624A6001682B
:1007A000CA6A22F47002CA620168CA6A838B104C5A
:1007B00004EB03531A43CA6201688A6822F4007288
:1007C0008A6001688A6890F8303042EA43228A6081
:1007D00001688A6822F480628A6001688A684069D8
:1007E00042EA8020886010BD0023014000E0FFFF46
:1007F0000000F0FFFEB58748D0ED000A9FED861A95
:100800009FED860A10EE810AF3EE0B0A80EE201AA5
:10081000BDEEC10A10EE103A642B00DD642380485F
:1008200090ED000ADFED7F0A20EE200ABDEEC00A3F
:1008300010EE100A002800DA40427B4991ED000AD0
:1008400020EE200ABDEEC00A10EE101A002900DAD0
:100850004942764C2278B2B10022764D2270744C17
:1008600095ED000A2678BDEEC00A012E0DD0002AB3
:1008700078D003B0CBB2BDE8F040C2B210EE101A8F
:100880006DA0FFF78DBD0122E7E76F4800780528CE
:100890001CD006282AD004283CD0032873D06B48EB
:1008A000D0ED000A6A48FDEEE00A10EE903AD0ED75
:1008B000000AFDEEE00A10EE902A00BF10EE101ABA
:1008C00064A0FFF76DFD00202070FEBD654890ED2F
:1008D000000A6548BDEEC00A10EE103A90ED000A1D
:1008E0006248BDEEC00A10EE102A0EE0604890ED9E
:1008F000000A6048BDEEC00A10EE103A90ED000A02
:100900005D48BDEEC00A10EE102A90ED000ABDEE63
:10091000C00AD3E759480078022813D0032822D010
:10092000042831D0564890ED000A5648BDEEC00A62
:1009300010EE103A90ED000A5348BDEEC00A10EEDA
:10094000102AE2E7514890ED000A5148BDEEC00A76
:1009500010EE103A90ED000A4E48BDEEC00A10EEBF
:10096000102AD2E74EE04C4890ED000A4B48BDEE0D
:10097000C00A10EE103A90ED000A4948BDEEC00AD8
:1009800010EE102AC1E70FE0464890ED000A4648F5
:10099000BDEEC00A10EE103A90ED000A4348BDEEDD
:1009A000C00A10EE102AB0E7414890ED000A414815
:1009B000FDEEC00A90ED000A3F48BDEEC00A90ED82
:1009C000001A3E48BDEEC11A8DED001A8DED010AE8
:1009D000CDED020A90ED000A3948BDEEC00A10EED6
:1009E000103A90ED000A3748BDEEC00A10EE102A0A
:1009F00090ED000A34A0BDEEC00A10EE101AFFF709
:100A0000CFFC60E7CAB2C1B2CDE9001234A0FFF753
:100A1000C7FCFEBD1400002000007A4400401C46C4
:100A2000640700200000C84278070020D40000209E
:100A30006F010020F00000207B4225643A25643AD3
:100A400025647D24000000004D00002028010020C6
:100A5000240100207B4325643A25643A25647D24E3
:100A600000000000200100201C0100206000002088
:100A700018010020140100205C000020ED0000207F
:100A8000B4010020B0010020AC0100209C01002036
:100A90009801002094010020900100208C0100208A
:100AA00088010020A8010020A4010020A00100204E
:100AB000CC010020C8010020C4010020C00100209A
:100AC000BC010020B80100207B4325643A25643A2C
:100AD00025643A25643A25643A25647D24000000A3
:100AE0007B4125643A25643A25643A25643A2564B5
:100AF0007D24000010B530EEC01A554C554984EDE8
:100B0000161AD4ED181A71EE811A11EE900AC4ED7E
:100B1000181A9FED512A884202DD84ED182A08E058
:100B200011EE900A4D49884203D9DFED4D1AC4ED0C
:100B3000181A4C480078DFED4C1A454930EEC00ACF
:100B40000428D1ED192A30EE620A2FD0022846D0AF
:100B500003285DD005285BD0D4ED090A60EE812A18
:100B60009FED423AC2EE830AD4ED0B2A94ED183A77
:100B700062EE832A82EEA13AD4ED0A1A20EE210A0F
:100B8000C0EE021A70EEC30A30EEE10A84ED170AD5
:100B9000374884ED191A90ED000ABDEEC00A10EE38
:100BA000100A04F01BFE01284BD04EE0D4ED060ADB
:100BB000D4ED182A20EE812AC2EE210A94ED082AEB
:100BC00022EE222AC2EE212A94ED072A20EE020A02
:100BD00080EE212A70EEA20A30EE820AD6E7D4ED2A
:100BE000030A94ED183A60EE812AC2EEA10AD4ED10
:100BF000052A62EE832A82EEA13AD4ED041A20EE91
:100C0000210AC0EE021A70EE830A30EEA10ABDE797
:100C1000D4ED000AD4ED182A20EE812ADFED150A62
:100C2000C2EE201A94ED022A22EE222AC2EE202AD7
:100C300071EEA20AD4ED011A41EE800AC4ED170A42
:100C4000A6E79FED0D0A84ED180A94ED170A10BD72
:100C50008801002000007A4400007A4400007AC431
:100C600000007AC4ED0000200050C3470050C3C705
:100C7000140000200000C8420000000010B51E4C07
:100C80001F481E49E278D0ED000A9FED1E1A1E484B
:100C9000B6EE000A012A07D081ED000A80ED001AA5
:100CA000BDE8104000F0CEB8236AA2699A420BDA80
:100CB000BEEE000A81ED000A90ED001A00F0C2F8C5
:100CC000A069401CA06110BD636AE2699A420BDA18
:100CD00081ED000A9FED0D1A80ED001A00F0B2F8C8
:100CE000E069401CE06110BD0021E17080ED001A58
:100CF000A161E16110BD00004C0000204C0100200A
:100D0000500100200000000054010020000020429B
:100D1000FEE70000064B4FF4807130B1521C824256
:100D200005DB0122184601F048BA0022FAE77047B5
:100D3000000002401FB50021174800910191029167
:100D4000144A039102604FF48032C0E9012101612D
:100D5000017680F82010114AC0E90A210124C461FB
:100D6000C16080F83010446100F09EFF08B100F0CF
:100D700011FB0420CDE900040720029069460648D3
:100D800000F04EFE08B100F005FB034801F03EF80C
:100D90001FBD0000002001404C0300200100000F97
:100DA00070B586B014216846FFF798FB16480021FD
:100DB000026842F001020260026802F0010205923C
:100DC000026842F0040202600068102500F004008E
:100DD000009505900320CDE901010C4E694630468F
:100DE00001F0EEF801242020CDE9000469463046E8
:100DF000029401F0E5F8CDE90054694604480294F4
:100E000001F0DEF806B070BD30380240000002404C
:100E10000008024010B5FFF7C3FFBDE81040FFF720
:100E200089BF7047034810B50078012801D0002021
:100E300010BDFEE74C0000200020401C1E28FCDBFB
:100E4000704700002DE9F0472DED0E8BB0EE419A72
:100E5000B0EE408AF0EE0CAAFD4BDFF8F883FE4EB0
:100E60001878FE4FF8EE0C8A9FEDFDCB9FEDFEAAA1
:100E7000FE4AFF4DFF4CF6EE009A08B1012810D152
:100E8000B0EE491AB0EE480A04F040FAFA4890ED84
:100E9000008A90ED01DA90ED029A187868B3012883
:100EA0004AD0C0B202287CD003287BD004287AD054
:100EB000052879D192ED000AB0EE6A1A69EE000AAF
:100EC000B0EE480A00EEE90A00EEA98AF0EE680AE0
:100ED00085ED020A84ED028A07F07BF985ED020AAE
:100EE00094ED020AB0EE6A1AF0EE680A07F071F9A2
:100EF00084ED020A86ED02AAB1E098ED000AD2ED77
:100F0000000A3DEE081A78EE4D1A70EE200AB0EE97
:100F1000410AB0EE612A09EE600A09EE602A09EE84
:100F2000201A49EE201A85ED020A84ED022A86ED88
:100F3000021AC7ED021A8AE1DFF84083F0EE4D0A8B
:100F400098ED000A40EE090A20EE090A10EE100A98
:100F5000C5ED020A07F05AFF6DEE299A41EC1B0B12
:100F600019EE900A07F052FF41EC1E0B18EE100A22
:100F700007F04CFF41EC1D0BB0EE4C0AF0EE6C0A92
:100F800005F02EFC9FEDBE1B51EC100B53EC112B0A
:100F900007F046FC53EC1D2B07F042FC53EC1E2BD4
:100FA00003E062E026E13CE15BE007F045FE53EC44
:100FB0001B2B07F08BF907F057F9A06098ED000A9A
:100FC00020EE090A10EE100A07F020FF41EC1B0B7F
:100FD00019EE900A07F01AFF41EC190B18EE100AEF
:100FE00007F014FF41EC1D0BB0EE4C0AF0EE6C0A5A
:100FF00005F0F6FB9FEDA41B51EC100B53EC112BED
:1010000007F00EFC53EC1D2B07F00AFC53EC192BD8
:1010100007F012FE53EC1B2B07F058F907F024F9E8
:10102000B06095ED020AB0EE6A1AF0EE680A07F0B9
:10103000D0F885ED020A94ED020AB0EE6A1AF0EEDD
:10104000680A07F0C6F884ED020A96ED020AB0EECF
:101050006A1AF0EE680A07F0BCF886ED020A87ED1E
:1010600002AABDEC0E8BBDE8F0879FED89EA92EDF8
:10107000000A914620EE290A10EE100A07F0C6FE7B
:1010800041EC1B0B19EE100A07F0C0FE41EC100BEF
:1010900005F0E6FBB0EE40DAF0EE60DAD8F80000DA
:1010A00007F0B4FE53EC1D2B07F0CCF953EC1B2BCF
:1010B00007F0C2FD07F0D8F801EE900A9FED751A0F
:1010C000DFED750AB0EE490A07F083F8B5EEC00A05
:1010D000B0EE409AF1EE10FA16D099ED000AF0EE5B
:1010E000610A40EE690A60EE880A80EEA11AF0EE0D
:1010F000610A40EE290A20EE880AC0EE210A84ED3A
:10110000021AC5ED020A03E085ED028A84ED028A27
:101110009FED620A29EE000A10EE100A07F076FE33
:1011200041EC1D0B19EE100A07F070FE41EC100B9C
:101130009FED5B1B04F02CFD9FED5B1B51EC100B36
:1011400053EC112B07F06CFB41EC1B0B19EE100A52
:1011500007F05CFE41EC100BB0EE4C1AF0EE6C1A8E
:1011600004F016FD9FED521B51EC100B53EC112BAC
:1011700007F056FB53EC1B2B07F0A8F853EC1D2B84
:1011800007F05AFD9FED4C1B53EC112B07F09EF816
:1011900007F06AF800EE100ADFED490A70EE600A07
:1011A0009FED480A484BB0EE6A1A00EE8E0AF0EE48
:1011B000680ABDEEC00A83ED000A95ED020A07F049
:1011C00008F885ED020A94ED020AB0EE6A1AF0EE14
:1011D000680A06F0FEFF84ED020A86ED02AA87ED9A
:1011E00002AA40F698024FF44871186807F001F817
:1011F000186036E792ED000AF0EE480AB0EE6A1A7F
:1012000029EE000A40EE690A00EE298AC5ED020ABD
:10121000F0EE601A84ED028AF0EE680AB0EE610A20
:101220005AE692ED000AD8ED000A30EE200A60EE90
:10123000090AB0EE480A00EEE90A00EEA98A85ED37
:10124000020A84ED020A86ED028A87ED028A3DE0F9
:10125000ED000020640100208C070020A007002082
:1012600000000000000008400000000060010020B5
:10127000640700207807002058070020680100203C
:10128000000000000000E0BF000000000000E03FA0
:10129000D7231F440AD7A33E48E1FABEE5D0E23F78
:1012A000000000000000004000000000D34DF43FAB
:1012B000000000809318E4BF000000E07A14FC3FB7
:1012C000D7A3E03F0080BB4434010020B0EE6A1A8F
:1012D000F0EE680A06F07DFF85ED020A94ED020A41
:1012E000B0EE6A1AF0EE680A06F073FF84ED020AA7
:1012F00096ED020AB0EE6A1AF0EE680A06F069FF8F
:1013000086ED020A97ED020AB0EE6A1AF0EE680A5C
:1013100006F05FFF87ED020AA3E600F001B80000C7
:10132000F0B587B014216846FFF7D8F816480024B6
:10133000016841F001010160016801F001010591BE
:10134000016841F0040101600068102600F004000B
:101350000096059003250D4FCDE9015469463846A6
:1013600000F02EFE2020CDE90005694602943846A3
:1013700000F026FE0096CDE901546946044800F0CD
:101380001FFE07B0F0BD00003038024000000240F0
:101390000008024072B6FEE770B53A4A3A4C05239F
:1013A0001188618108462380258832F815608E42B5
:1013B00000D331466D1CADB225807B2DF4D3618105
:1013C000A0812380268832F81650854200D828460E
:1013D000761CB5B225807B2DF4D3A081084440084B
:1013E00020822380238832F81350854214D902EBDF
:1013F00043014E8886420FD98E8886420CD9CE880A
:10140000864209D20E89864206D24D89854203D290
:1014100099B2891CA18004E05B1C99B221807629D5
:10142000E0D3762161808BB232F81310814214D25E
:1014300002EB43014D8885420FD28D8885420CD244
:10144000CD88854209D90D89854206D949898142CD
:1014500003D998B2801CE08004E05B1E99B26180E1
:101460000529E0D8E188A08808444008E081218966
:10147000401A06F049F85A2801D92089E081E0890C
:10148000208170BD4C020020000000201FB569467D
:10149000009007200290012001900B4800F0C0FA54
:1014A000094800F0B3FC1E21074800F059FC06482B
:1014B00000F05EFB800503D5034800F05BFB84B2BF
:1014C00004B0204610BD00004C0300204D494E4A98
:1014D0004E4891ED041A82ED001A0088403800EE63
:1014E000100A4B48F8EEC00AC1ED180A00789FEDCB
:1014F000490A9FED492A0B460128D3ED191A22D03B
:1015000005282BD0454B70EEE11AD3ED002A444B51
:1015100060EEA22A22EE800AD3ED002AC1ED190A5C
:1015200061EEA21A01EEC20ADFED3E0A3E4900B3A7
:10153000012823D0022828D0032829D0052837D015
:1015400004283FD051E0394B70EEE11AD3ED002A68
:10155000374B60EEA22A22EE800ADDE7354B70EEB3
:10156000E11AD3ED002A344B60EEA22A22EE800A63
:10157000D2E7F0EE411A20EE210A32E0F0EE410A05
:1015800020EE200ADFED2D0A2BE0DFED2D0A28E00A
:10159000F0EE410AF5EEC00AF1EE10FA01D2B1EE1A
:1015A000400AF0EE410A20EE200ADFED260A18E09C
:1015B000F0EE411AF5EEC01AF1EE10FAD9D2B1EE02
:1015C000400AD6E7F0EE410AF5EEC00AF1EE10FA55
:1015D00001D2B1EE400AF0EE410A20EE200ADFED22
:1015E0001A0AC0EE201AC1ED001ADFED180A1848D9
:1015F00081EE200A82ED000A91ED001AD0ED000A7A
:10160000FFF720BC4C0000204C0100200E00002001
:10161000ED000020CDCCCCBDCDCCCC3D14010020C4
:10162000180100200050434754010020040100200D
:1016300008010020F4000020F80000200010A4465B
:101640000000E14300DC824700089D4600007A4428
:10165000500100202DE9F0412DED028B9FED678AAE
:10166000FFF7E0FB664E674DDFF89C81D0B1642048
:10167000FFF750FB86ED008A85ED008A88ED008A31
:10168000D6ED000A9FED611A80EE810A86ED000A10
:1016900095ED001AD8ED000ABDEC028BBDE8F041D3
:1016A000FFF7D0BB5A4C5B485B4F94ED050A86EDC3
:1016B000000A0068C0F1640000EE100AB8EEC00A2B
:1016C00084ED1A0A38789FED551ADFED550A012886
:1016D0002CD0052837D05348D0ED001A524860EE80
:1016E000211A21EE818A94ED1B1A30EE411A00BFB7
:1016F000D0ED001A21EE211A01EE608A84ED1B0A5A
:101700000020FFF707FB3878A0B301283AD0032860
:101710003FD005284DD004285BD00228B0D19FEDE2
:10172000430AC8EE000AC5ED000AA9E74048D0ED1B
:10173000001A404860EE211A21EE818A94ED1B1AAE
:1017400030EE411AD4E73C489FED3C1AD0ED000A38
:101750003B4860EE200A20EE818AD4ED1B0A90ED12
:10176000001A70EE600A60EE810A9FED361A00EEF4
:10177000C18AC3E7FFE794ED050ADFED330A28EEDF
:10178000000A35E094ED050ADFED300A28EE000A84
:101790002EE096ED000AB5EEC00AF1EE10FA01D285
:1017A000B1EE488A94ED050ADFED290A28EE000A19
:1017B0001EE096ED000AB5EEC00AF1EE10FA01D275
:1017C000B1EE488A94ED050ADFED220A28EE000A00
:1017D0000EE096ED000AB5EEC00AF1EE10FA01D265
:1017E000B1EE488A94ED050ADFED1B0A28EE000AE7
:1017F00080EE201A85ED001A42E70000000000008C
:101800004C010020540100205001002000007A44C7
:101810004C00002028000020ED0000200AD7A3BDC6
:10182000CDCC4C3D1C010020200100200000E143F4
:101830000C01002010010020FC000020CDCCCCBD0C
:1018400000010020CDCCCC3D0050434700C02846CD
:1018500000C82F4700C0DA4600089D4610B5022098
:101860002DED048B03F01EFC3C4C2060032003F0A4
:1018700019FC6060042003F015FCA060052003F053
:1018800011FC3749E0600978062919D2DFE801F038
:101890004703575747572168494200EE101A6168BD
:1018A000F8EEC09A494200EE101AA168B8EEC09A4C
:1018B000494200EE101A4EE000EE100AB8EEC08A5F
:1018C0009FED280A284829EE801AD0ED000A274803
:1018D00061EE201A90ED001A254881EE812A69EE0A
:1018E000001A61EEA01A80ED002A81EE812A68EECE
:1018F000801A204828EE000A61EEA01A20EE200A85
:10190000C0EE010A80ED002A1B4881EE812A80ED9D
:10191000002A1A48C0ED000ABDEC048B10BD94EDFE
:10192000000AA168F8EEC09A94ED010A49424042CB
:10193000B8EEC09A00EE101AF8EEC08ABCE794ED3B
:10194000000A6168F8EEC09A494200EE101AB8EE3B
:10195000C09A94ED020AF8EEC08AADE73007002085
:10196000ED00002000401C465C01002058010020D2
:1019700064070020780700208C070020A0070020C3
:101980002DE9F04100250E4607462C4608E0384672
:10199000FFF77CFD0544052005F0EAFC641CE4B279
:1019A000B442F4D3B5FBF6F080B2BDE8F08100009C
:1019B00010B50820FFF76AFD06F0E2FE9FED0F1B51
:1019C00053EC112B06F02CFF9FED0E1B53EC112B4B
:1019D00006F026FF9FED0D1B53EC112B06F020FFA8
:1019E0009FED0C1B53EC112B06F01AFF06F082FE44
:1019F00000EE100AB8EEC00A10BD0000666666660A
:101A000066660A4000000000000026407B14AE47D6
:101A1000E17AF03F000000000000303F7047000016
:101A200078B50024009490F83C20012A19D00122B6
:101A300080F83C200A6807230568092A13D9EE6854
:101A40000A3A02EB420293409E43EE600B788A68AA
:101A50000A3B03EB43039A400368DD682A43DA60DC
:101A600010E0022078BD2E6902EB420293409E43B3
:101A70002E610B788A6803EB43039A4003681D6963
:101A80002A431A614A681F23072A13D205686E6B1E
:101A9000521E02EB820293409E436E630B790A88CA
:101AA0005B1E92B203EB83039A4003685D6B2A438B
:101AB0005A6327E005680D2A12D22E6BD21F02EB63
:101AC000820293409E432E630B790A88DB1F92B2F9
:101AD00003EB83039A4003681D6B2A431A6311E0EA
:101AE000EE6A0D3A02EB820293409E43EE620B795E
:101AF0000A880D3B92B203EB83039A400368DD6AC8
:101B00002A43DA62164B0568144A9D4206D10D68D5
:101B1000122D03D1556845F48005556005689D4236
:101B200018D10B68102B01D0112B13D1536843F43B
:101B300000035360096810290CD10A490A4A096850
:101B4000B1FBF2F101EB8101490000E0491E009177
:101B50000029FBD180F83C40002078BD00230140E3
:101B6000002001404400002040420F0070477047B1
:101B7000006C70470068C06C704770B50446006820
:101B80000668456816F0020F05F020012AD049B317
:101B9000216CC90603D4216C41F400712164816871
:101BA00011F0405F17D1217EA9B9C16A11F4700FFD
:101BB00002D0816849050ED4416821F020014160BE
:101BC000206C20F480702064206CC00403D4206C4E
:101BD00040F0010020642046FFF7C8FF21686FF045
:101BE0001200086016F0040F05F0800132D089B3AE
:101BF000206CC00603D4206C40F4005020642068A0
:101C0000816811F4401F1ED1816B11F4401F02D076
:101C10008168490517D44168490514D4816811F0D9
:101C2000405F10D1217E71B9416821F0800141608F
:101C3000206C20F480502064206CC00503D4206CFC
:101C400040F0010020642046FFF7E8FE21686FF0B5
:101C50000C00086016F0010F05F040010FD071B1C3
:101C600020680068C0070AD0206C40F480302064EF
:101C7000204600F043F821686FF00100086016F07C
:101C8000200F05F080610ED000290CD0606C40F070
:101C90000200606420686FF0200505602046FFF7B1
:101CA00066FF2068056070BD70B504004FF0000548
:101CB00003D0206C002610B107E0012070BD204643
:101CC00000F01EF8666484F83C60206CC00610D4F6
:101CD000206C20F4885040F0020020642046FEF77B
:101CE000F5FC6664206C20F0020040F001002064E6
:101CF00000E0012584F83C60284670BD7047000074
:101D000010B586B0044614216846FEF7E7FB11497A
:101D1000206888421BD110480021026842F480727A
:101D20000260006800F4807005900B481438026867
:101D300042F002020260006800F0020005900320F9
:101D40000090CDE901016946044800F039F906B078
:101D500010BD000000200140443802400004024051
:101D60002DE9F041044600680D4681684FF00007F8
:101D700049050BD58068C00508D5206C40F02000CF
:101D8000206484F83C700120BDE8F08100F01AFA6C
:101D9000064613E0681C11D025B100F013FA801B31
:101DA000A8420BD920680068800707D4206C40F057
:101DB0000400206484F83C700320E5E72068006894
:101DC0008007E7D521686FF012000860206C40F4AE
:101DD000007020642068816811F0405F13D1217E7B
:101DE00089B9C16A11F4700F02D0806840050AD425
:101DF000206C20F480702064206CC00403D4206C1C
:101E000040F0010020640020BEE7000018B500216A
:101E1000009190F83C20012A07D0012280F83C2054
:101E200002689368DB0702D011E0022018BD9368B6
:101E300043F0010393602E4A2E4B1268B2FBF3F27B
:101E400002EB420200E0521E0092002AFBD102681F
:101E50009368DB0742D0036C40F20164A34343F470
:101E60008073036453685B0505D5036C23F400534A
:101E700043F480530364036CDB0404D5436C23F008
:101E80000603436400E0416480F83C101A496FF097
:101E90002203136049680068CA06184906D08842C0
:101EA00024D1816811F0405F13D01FE08842F8D040
:101EB000134A904203D1D1F80423D206F1D0114A3B
:101EC000904213D1D1F8041301F01F011029E8D377
:101ED0000CE0816841F08041816007E0016C41F0D5
:101EE00010010164416C41F001014164002018BD02
:101EF0004400002040420F00002301400020014028
:101F000000210140002201402DE9F0410446876D87
:101F100000F058F9064694F835000025022806D04E
:101F20008020606584F834500120BDE8F08120688D
:101F3000016821F0160101602068416921F08001EB
:101F40004161206C08B9A06C20B12068016821F0C3
:101F5000080101602068016821F0010101600CE0C6
:101F600000F030F9801B052807D920206065032088
:101F700084F8350084F83450D7E720680068C0073B
:101F8000EED194F85C103F208840B860012084F8BE
:101F9000350084F834500020C7E790F83510022946
:101FA00003D08021416501207047052180F835105C
:101FB0000068016821F00101016000207047000005
:101FC0002DE9F84FDFF8BCA10022012503264FF0D0
:101FD0000F090AF1040BAAF1040E00BF0B6805FA01
:101FE00002F42340A34270D10F7907F00307012FB9
:101FF00001D0022F16D187684FEA420806FA08FC82
:1020000027EA0C07D1F80CC00CFA08FC4CEA070CC4
:10201000C0F808C04768A7430C79C4F30014944083
:102020003C4344600C79E443A4070AD0C4684FEAF7
:10203000420C06FA0CF7BC438F6807FA0CF72743EB
:10204000C7600C7904F00304022C12D1D40800EB11
:10205000840CDCF820405707FF0E09FA07F824EA41
:102060000804D1F8108008FA07F848EA0408CCF808
:10207000208004684FEA420C06FA0CF7BC430F7943
:1020800007F0030707FA0CF7274307604C6814F4BE
:10209000403F70D03C4C276847F480472760246855
:1020A00022F0030704F480440094384C07EB040C3E
:1020B000DCF8084897074FEA177809FA08F7BC4395
:1020C000334FB84202D1002724E054E0314FB842E8
:1020D00001D101271EE0304FB84201D1022719E09B
:1020E0002E4FB84201D1032714E02D4FB84201D141
:1020F00004270FE02B4FB84201D105270AE02A4FF1
:10210000B84201D1062705E0284FB84201D1072780
:1021100000E0082707FA08F72743CCF80878DAF830
:1021200000405746D1F804C09C435FEACC2C00D550
:102130001C433C60DBF800405F46D1F804C09C4380
:102140005FEA8C2C00D51C433C60DEF800407746EB
:10215000D1F804C09C435FEA8C3C00D51C433C6032
:10216000084F083F3C68D1F804C09C435FEACC3C70
:1021700000D51C433C60521C102AFFF42FAFBDE871
:10218000F88F0000083C0140443802400030014014
:10219000000002400004024000080240000C02401F
:1021A000001002400014024000180240001C0240CF
:1021B0000069084000D0012070470AB18161704772
:1021C0000904FBE7014880687047000038000020E0
:1021D00002488168491C8160704700003800002077
:1021E0000B4810B5016841F400710160016841F4C9
:1021F00080610160016841F480710160032000F09A
:102200006FF8032000F006F800F024F8002010BD5D
:10221000003C024070B50D4D04464FF47A712878A9
:10222000B1FBF0F00A490968B1FBF0F000F00CFBDB
:1022300048B9102C07D200222146501E00F030F879
:1022400000206C6070BD012070BD000038000020CF
:10225000440000200A4808B5016841F4804101604B
:10226000006800F4804000900548001F016841F0BC
:1022700080510160006800F08050009008BD0000AF
:1022800044380240002809DB00F01F020121914080
:102290004009800000F1E020C0F800117047000004
:1022A000F0B40E4B1B680C46C3F30223C3F10705C1
:1022B000042D00D90425191D072901D2002300E0AF
:1022C000DB1E012606FA05F1491E214099409E4079
:1022D000761E16403143F0BC03F04ABC0CED00E022
:1022E000064900F0070208684FF6FF03184040EA6D
:1022F0000220034A10430860704700000CED00E024
:102300000000FA052DE9F0470E46050065D0DFF81C
:102310001481D8F80000F7B200F00700B04207D2ED
:1023200088F80070D8F8000000F00700B04254D1DF
:1023300028683D4C810712D5400703D5206840F43A
:10234000E05020602878000703D5206840F4604002
:1023500020602068A96820F0F000084320602878F9
:10236000C0072DD0304968680839012812D00228EA
:1023700013D0032811D00968890700292DDA2168B4
:1023800021F0030101432160FFF71CFF814641F268
:10239000883A0EE009688903EFE709688901ECE7EC
:1023A000FFF710FFA0EB0901514502D90320BDE85A
:1023B000F0872068696800F00C00B0EB810FEFD166
:1023C000D8F80010404601F00701B14207D9077064
:1023D000006800F00700B04201D00120E7E728784C
:1023E000400705D52068E96820F4E05008432060E4
:1023F0002878000706D52068296920F4604040EA63
:10240000C100206000F038F82168084AC1F30311C8
:10241000515CC8400649086006480068FFF7FAFEAC
:102420000020C4E7003C024008380240F28F000858
:10243000440000203C000020044805490068096869
:10244000044AC1F38221515CC84070474400002017
:1024500008380240029000080448054900680968ED
:10246000044AC1F34231515CC84070474400002027
:102470000838024002900008154810B5006810F0B6
:102480000C02144813D01449042A0FD0082A0ED184
:102490000F4C241F2268236802F03F025B0207D51D
:1024A0002068C0F38810A0FB010106E0084610BDBB
:1024B0002168C1F38811A1FB00010023FDF7F8FE9C
:1024C0002168C1F30141491C4900B0FBF1F010BD86
:1024D000083802400024F40040787D012DE9F84FCF
:1024E00004006ED02078DFF84C93C007A9F10405F2
:1024F0004AD009F104000168C1F38101012908D023
:102500000068C0F3810002280AD1D9F80000400217
:1025100006D52868800337D560680028E1D033E00D
:102520006068B0F5803F10D0B0F5A02F286810D0BB
:1025300020F480302860286820F4802028606068BB
:10254000A8B1FFF73FFE06460DE0286840F4803052
:10255000F4E740F480202860F7E700BFFFF732FE81
:10256000801B642873D828688003F7D50CE0FFF738
:1025700029FE064605E000BFFFF724FE801B642805
:10258000F0D828688003F7D42078DFF8AC82800781
:102590004FF0000A3ED5A748001D016811F00C0F4E
:1025A00008D00068C0F3810002280BD1D9F80000E0
:1025B000400207D42868800716D5E068012800D1BA
:1025C00012E033E1E068B8B10120C8F80000FFF77D
:1025D000F9FD064605E000BFFFF7F4FD801B022869
:1025E000C0D828688007F7D52868216920F0F8004E
:1025F00040EAC10028600DE0C8F800A0FFF7E2FD46
:10260000064604E0FFF7DEFD801B02281FD828687D
:102610008007F7D42078000722D5864F8748616964
:10262000703771B101210160FFF7CCFD064604E06F
:10263000FFF7C8FD801B022809D838688007F7D546
:102640000EE0C0F800A0FFF7BDFD064605E082E001
:10265000FFF7B8FD801B02287DD838688007F7D4C3
:102660002078400768D5DFF8CCB100270BF13C0B90
:10267000DBF80000C0000BD4DBF8001041F0805103
:10268000CBF80010DBF80000012700F0805000902C
:102690006B4E3068C00510D4306840F480703060F4
:1026A000FFF790FD009005E0FFF78CFD0099401AC0
:1026B000022850D83068C005F6D55E4EA0686C364A
:1026C00001280FD00528306810D020F001003060BC
:1026D000306820F004003060A068B8B1FFF772FDE8
:1026E00000900FE0306840F00100F4E740F0040093
:1026F0003060F7E7FFF766FD0099411A41F2883034
:10270000814266D830688007F4D50EE0FFF75AFDA5
:10271000009007E0FFF756FD0099411A41F288301A
:10272000814256D830688007F4D42FB1DBF800100E
:1027300021F08051CBF80010A069C8B33D49091DB4
:102740000968C1F3810102294AD00228504607D006
:10275000C8F8600000E03CE0FFF734FD04463BE0D1
:102760004746C8F86000FFF72DFD064605E000BFAC
:10277000FFF728FD801B02282BD828688001F7D49A
:10278000D4E907010843A16A2E4A490802EB014136
:10279000626A41EA8211084394F82C1040EA016110
:1027A000C9F8001001203866FFF70CFD044606E06A
:1027B0003EE000BFFFF706FD001B022809D828688D
:1027C0008001F7D534E000BFFFF7FCFC001B0228B6
:1027D00002D90320BDE8F88F28688001F4D427E0EF
:1027E0000128F7D0D9F80000E26900F48001914295
:1027F0001CD1226A00F03F01914217D147F6C07107
:10280000626A0140B1EB821F10D1A26A4FF0FF3320
:1028100000F4403103EB5202B1EB024F06D194F8C1
:102820002C1000F07060B0EB016F01D00120D1E7F7
:102830000020CFE70438024000004742800E4742A4
:10284000007000400000FFFF10B5401EB0F1807F17
:1028500001D3012010BD4FF0E02460610F2160170B
:1028600003F086F90020A06107202061002010BD40
:102870007047704710B590F83C20012A22D0012201
:1028800080F83C20CA688C6822F4407222434C686D
:1028900022F4806222430C6822F4006222430C6915
:1028A00022F4805222434C6922F400522243C96927
:1028B000002322F480420A4301684A6480F83C30D5
:1028C000002010BD022010BD70B590F83C20012AF8
:1028D00032D0012480F83C40022280F83D20036879
:1028E0005A689D6822F070060A6832435A60134B9A
:1028F00002689A4214D0B2F1804F11D0104B9A4224
:102900000ED0104B9A420BD00F4B9A4208D00F4B6F
:102910009A4205D00E4B9A4202D00E4B9A4204D1F5
:10292000496825F080031943916080F83D400021FB
:1029300080F83C10084670BD022070BD00000140C8
:102940000004004000080040000C0040000401406A
:10295000004001400018004010B5040003D094F876
:102960003D0010B107E0012010BD002084F83C00BC
:10297000204600F01FF8022084F83D00211D206849
:1029800002F0C2FD012084F8460084F83E0084F87D
:102990003F0084F8400084F8410084F8420084F845
:1029A000430084F8440084F8450084F83D0000208A
:1029B00010BD000008B5284A01682848914207D197
:1029C000016841F001010160006800F0010009E0C8
:1029D000234A914208D1016841F002010160006878
:1029E00000F00200009008BD1E4A914207D1016824
:1029F00041F480310160006800F48030F2E71A4A47
:102A0000914207D1016841F400310160006800F48F
:102A10000030E7E7154A914207D1016841F480216F
:102A20000160006800F48020DCE711488142DAD1BF
:102A30000A48001F016841F040010160006801225E
:102A400000F04000009002212B20FFF729FCBDE898
:102A500008402B20FFF716BC00000140443802401C
:102A60000004014000400140004401400048014092
:102A70000018004090F83D10012901D00120704756
:102A8000022180F83D100168CA6842F00102CA6064
:102A900000681149884214D0B0F1804F11D00F491D
:102AA00088420ED00E4988420BD00E49884208D089
:102AB0000D49884205D00D49884202D00C49884210
:102AC00004D1816801F00701062903D0016841F0B3
:102AD0000101016000207047000001400004004037
:102AE00000080040000C004000040140004001408C
:102AF0000018004070B5044690F83C0000250128FD
:102B000017D0012684F83C60022084F83D0020683C
:102B1000826822F0770222F47F428260086850289F
:102B200038D00DDC20284FD005DC90B3102811D10F
:102B30004AE0022070BD302846D040280AD13BE050
:102B400060282FD070280DD0B0F5805F03D0B0F58D
:102B5000005F12D0012584F83D60002084F83C001D
:102B6000284670BDCB68D1E90121206802F03DFD07
:102B70002068816841F0770109E0CB68D1E9012143
:102B8000206802F032FD2068816841F48041816054
:102B9000E1E719E0CA684968206802F0FBFD5021AE
:102BA000206806E0CA684968206802F004FE6021D7
:102BB000206802F024FDCEE7CA684968206802F068
:102BC000E9FD40212068F4E7226801461046F0E75D
:102BD0002DE9F0410D46040003D094F83D0018B1F2
:102BE00008E00120BDE8F081002084F83C00204688
:102BF00000F040F8022084F83D002068816844F22B
:102C0000070291438160211D206802F07DFC22684B
:102C100090689169166A2B68AF69034340F20330EC
:102C2000814341EA0721A868EF6908434FF6FC4158
:102C30008843E96840EA0720014328692F6A0001B8
:102C400040EA0730084369686D6926F0AA0646EA3B
:102C50000515294393602268906154F8460B016280
:102C6000012004F81F09E0752076E0762077A07532
:102C70000020B7E7F0B587B0044614216846FDF799
:102C80002DFC4549236844481039122601240325A8
:102C9000424A434FB3F1804F17D0DFF808E14FF0BD
:102CA000020C734540D1026842F0020202600068E3
:102CB00000F002000590086840F002000860086813
:102CC00000F002000590302043E0036843F0010368
:102CD0000360006800F001000590086840F0010002
:102CE0000860086800F001000590086840F00200E4
:102CF00008600868CDE9024500F0020005904FF435
:102D00000040CDE90006694604941046FFF758F9E3
:102D10000820CDE90006CDE902456946049438460D
:102D2000FFF74EF907B0F0BDDFF87CE0734518D12E
:102D3000026842F004020260006800F0040005909E
:102D4000086840F002000860086800F00200059082
:102D5000C020CDE9000602AA694682E83010384654
:102D6000DEE7124FBB42DDD1036843F00803036086
:102D7000006800F008000590086840F00100086055
:102D80000868CDE9005600F00100CDE904C06946AD
:102D90001046CDE90245C3E740380240000002403A
:102DA000000402400004004000080040000C004005
:102DB00070B590F83E60044690F83F5090F842306D
:102DC00090F84320022021B104290ED0012E1BD1FE
:102DD00014E0012E18D1012B16D184F83E0084F89E
:102DE000420001220021206820E0012D0CD1012A9F
:102DF0000AD184F83F0084F8430014E0012D03D188
:102E0000012B01D1012A01D0012070BD84F83E00C0
:102E100084F83F0084F8420084F843000122002136
:102E2000206802F0D5FB01220421206802F0D0FBCB
:102E30002068016841F001010160002070BD704709
:102E400070B50446006801694FF00005C943890761
:102E500015D4C168C943890711D4E91E0161012055
:102E60002077206880698007204602D0FFF7E7FFBF
:102E700004E000F023F9204600F0B5F9257720683A
:102E80000169C943490717D4C168C943490713D425
:102E90006FF004010161022020772068806910F43E
:102EA000407F204602D0FFF7CAFF04E000F006F999
:102EB000204600F098F9257720680169C943090781
:102EC00016D4C168C943090712D46FF00801016123
:102ED000042020772068C0698007204602D0FFF7D1
:102EE000AEFF04E000F0EAF8204600F07CF9257718
:102EF00020680169C943C90617D4C168C943C90616
:102F000013D46FF010010161082020772068C06998
:102F100010F4407F204602D0FFF791FF04E000F05C
:102F2000CDF8204600F05FF9257720680169C94394
:102F3000C90708D1C168C943C90704D1891E016105
:102F4000204600F0B5F920680169C943090609D493
:102F5000C168C943090605D46FF0800101612046AC
:102F6000FFF786FC20680169C943490609D4C16896
:102F7000C943490605D46FF040010161204600F0C5
:102F8000E9FA20680169C94389060BD4C168C943BD
:102F9000890607D46FF0200101612046BDE870402A
:102FA000FFF767BC70BD00002DE9F04186B0044614
:102FB00014216846FDF792FA374F226800233749FB
:102FC0000226012503243648BA421BD10A689846D6
:102FD00042F010020A600968CDE9025401F01001C4
:102FE00005914FF42061CDE9001604956946074626
:102FF000FEF7E6FF60038DE8410169463846CDE9FA
:10300000034511E0274F7B15BA4212D1086840F002
:10301000040008600868CDE9025400F00400CDE91E
:1030200004406946204834E0FEF7CAFF06B0BDE818
:10303000F0811E4FBA4209D10A6842F010020A60BC
:10304000096801F01001059160210CE0184F194842
:10305000BA420FD10A6842F002020A60096801F020
:10306000020105918115CDE90016CDE902540494C1
:103070006946D9E7104FBA42D8D10A6842F0020235
:103080000A600968CDE9025401F00201CDE904416A
:103090006946CDE90036C7E70000014030380240FC
:1030A00000100240000401400008024000400140BE
:1030B000004401400004024000480140704770B5E0
:1030C000044690F83C0000260D4601280FD0012050
:1030D00084F83C006AB1042A1DD0082A2FD00C2A9B
:1030E0003FD00126002084F83C00304670BD02200D
:1030F00070BD206802F08CFA2068816941F00801F7
:1031000081612068816921F0040181612068816901
:103110002A69114311E0206802F0AAFA2068816947
:1031200041F4006181612068816921F480618161DD
:10313000206881692A6941EA02218161D2E7206819
:1031400002F0CCFA2068C16941F00801C161206831
:10315000C16921F00401C1612068C1692A69114374
:1031600011E0206802F0EEFA2068C16941F40061C4
:10317000C1612068C16921F48061C1612068C169B1
:103180002A6941EA0221C161ACE710B5040003D00D
:1031900094F83D0010B107E0012010BD002084F834
:1031A0003C00204600F01EF8022084F83D00211D5E
:1031B000206802F0A9F9012084F8460084F83E0056
:1031C00084F83F0084F8400084F8410084F842000D
:1031D00084F8430084F8440084F8450084F83D00F6
:1031E000002010BD7047704710B50446022249B157
:1031F00004290ED0082913D094F84100012816D0D4
:10320000012010BD94F83E000128F9D184F83E2039
:103210000FE094F83F000128F2D184F83F2008E045
:1032200094F840000128EBD184F8402001E084F8B4
:1032300041200122206802F0CBF916492068164A85
:10324000884201D0904203D1436C43F4004343646D
:103250002068884213D0B0F1804F10D00F498842C7
:103260000DD00F4988420AD00E49884207D09042BB
:1032700005D00D49884202D00C49884204D18168AA
:1032800001F00701062903D0016841F00101016046
:10329000002010BD00000140000401400004004077
:1032A00000080040000C00400040014000180040B1
:1032B000F8B50068984988427ED1984C40F6B831FC
:1032C000E068884201DA401CE060FEF7C7FA02F0CD
:1032D000DFFB0025012802D002281ED110E0607813
:1032E000401CC0B26070052804D0062805D014D94F
:1032F000657012E0FEF711F80FE0FDF78BFD0CE0B2
:10330000207818B10020207010B106E00120FAE703
:103310004FF4E1618248FDF7E1F860796178884215
:1033200007D0401C607101F05BFB6079062800D972
:103330006571607808B3012822D0022823D00328C1
:1033400024D0042825D0052826D02079401CC0B2DE
:10335000207102284BD000D92571724890ED000AE7
:10336000BDEEC00A10EE100A02F038FA28B30023AE
:103370001A46194618460095C8E001F01DFEECE714
:1033800004F056F8E9E704F03DFFE6E704F054FEE8
:10339000E3E700F057FEE0E70420FEF777F8624C21
:1033A00020600E20FEF772F8604E30600520FEF7B8
:1033B0006DF85F49086001E0AAE020E000EBC00181
:1033C000336801EB001103EB81062168C72202FB81
:1033D00001621844084492FBF0F0564C56492260B2
:1033E0000860FEF737F9022003F0A6FFB5E7257164
:1033F00001F018FEFDF7D0FFFEF768F8ADE74F4C7F
:10340000D4ED020A94ED000A00F00CFD00EE100A63
:103410004B4EB8EEC00A84ED010AD6ED020A96EDD5
:10342000000A00F03DFD00EE100A464FB8EEC00A5B
:1034300086ED010AD7ED020A97ED000A00F06EFD55
:1034400000EE100A404BB8EEC00A87ED010AD3ED3A
:10345000020A93ED000A00F09FFD00EE100A44F20C
:103460007400B8EEC00A83ED010A00F065FE37482B
:10347000007806284CD2DFE800F003152B4C034CF3
:10348000009593ED010ABDEEC00A10EE103A97EDDB
:10349000010ABDEEC00A10EE102A96ED010AB1EE47
:1034A000400A27E0009593ED010ABDEEC00A10EE38
:1034B000103A97ED010ABDEEC00A10EE102A96ED03
:1034C000010ABDEEC00A10EE101A94ED010A19E0CF
:1034D0001F480068CDF8000093ED010ABDEEC00A58
:1034E00010EE103A97ED010ABDEEC00A10EE102A58
:1034F00096ED010ABDEEC00A10EE101A94ED010A15
:10350000B1EE400ABDEEC00A10EE100A01F0C4FE92
:10351000F8BD0095E0E70000001800404C000020D6
:103520002008002014000020240000201C0000209F
:10353000200000202C00002028000020640700202C
:10354000780700208C070020A0070020ED00002055
:10355000340100207047704770470000F8B50168DB
:1035600004460868CA684B6910F00F0F4FF0000559
:1035700059D003F0010602F49077374365D0C107B4
:1035800005D0D10503D5216C41F00101216441072B
:1035900005D5D90703D0216C41F0020121648107D0
:1035A00005D5D90703D0216C41F00401216401073E
:1035B00007D502F02001314303D0216C41F008010E
:1035C0002164216C00293AD0800604D5900602D5EA
:1035D000204602F04AF920684069216CC0F380104F
:1035E000090700D460B3204602F018F9206840694A
:1035F000400621D52068143050E8001F21F040011A
:1036000040E80012002AF5D1A06BA8B16C49016511
:10361000A06BFEF7C2FC002811D0A06B016D01B0B9
:10362000BDE8F040084783060FD593060DD5204628
:10363000BDE8F84002F019B92046FFF78DFFF8BD4C
:103640002046FFF789FF2564F8BD266B2023012E55
:1036500079D1C60677D5D60675D508684868009032
:103660004869400640D5A16B086840680004000C1A
:10367000EAD0A28D8242E7D9E085C869B0F5807FA3
:103680002DD020680C3050E8001F21F4807140E8F4
:103690000012002AF5D12068143050E8001F21F0F4
:1036A000010140E80012002AF5D12068143050E8EA
:1036B000001F21F0400140E80012002AF5D184F8F3
:1036C0003E30256320680C3050E8001F21F01001C7
:1036D00040E80012002AF5D1A06BFEF715FCA08D82
:1036E000E18D401A81B229E0A08DE18D401A81B2AE
:1036F000E08D0028A8D00029A6D020680C3050E822
:10370000002F22F4907240E80026002EF5D12068A8
:10371000143050E8002F22F0010240E80026002E6D
:10372000F5D184F83E30256320680C3050E8002F36
:1037300022F0100240E80023002BF5D12046FFF7CD
:103740000AFFF8BDFFE705062BD5150629D594F825
:103750003D002128F5D1A068B0F5805F01D1206936
:10376000B0B1206A411C2162216800784860E08C79
:10377000401E0004000CE084E3D12068C16821F001
:103780008001C1602068C16841F04001C160D8E794
:10379000206A0088C0F308004860206A801C20620C
:1037A000E5E74006CDD55006CBD5CA68204622F0C5
:1037B0004002CA6084F83D3000F032FBC1E70000EF
:1037C0000D58000870B5040004D094F83D000025A1
:1037D00010B106E0012070BD84F83C50204600F096
:1037E00023F8242084F83D002068C16821F40051AA
:1037F000C160204602F09AF82068016921F49041E6
:1038000001612068416921F02A0141612068C16895
:1038100041F40051C1602564202084F83D0084F803
:103820003E00002070BD0000F0B587B004461421B2
:103830006846FCF753FE4749454B22684548103916
:1038400002250124444E9A4233D1026842F4801288
:103850000260006800F480100590086840F00400E1
:103860000860086800F004000590086840F008004F
:1038700008600868082700F0080005908814009088
:10388000CDE90154CDE9034769463448FEF798FB7A
:1038900004200090CDE90154CDE903476946304644
:1038A000FEF78EFB012211463520FEF7F9FC35208C
:1038B00026E02B4F0723BA4226D12648001D026876
:1038C00042F010020260006800F0100005900868E5
:1038D00040F0010008600868694600F001000590AA
:1038E0004FF4C0600090CDE90154CDE903431D4879
:1038F000FEF766FB012211462520FEF7D1FC2520AC
:10390000FEF7C0FC07B0F0BD174FBA42FAD102680B
:1039100042F400320260006800F40030059008684C
:1039200040F0080008600868694600F0080005904B
:1039300060200090CDE90154CDE903433046FEF705
:103940003FFB012211462620FEF7AAFC2620D7E7DE
:103950000050004040380240000C02400008024085
:1039600000100140000002400044004090F83E304A
:10397000202B0ED159B152B190F83C30012B08D018
:10398000012380F83C300023036302F055B8012086
:1039900070470220704700002DE9F05FFF490122C7
:1039A0002DED048B00254FF0020B0068FC4C884283
:1039B00070D104F1080104F1080009780078A1F140
:1039C0004006F7B2F74BDFF8E0C3DFF8E083F84ECC
:1039D0004B2808D0492808D04A2806D036782EB17E
:1039E000012E0BD021E032700CE03570A0F14106C1
:1039F000072E3BD9082817DC197016E043280AD097
:103A000047280DD08CF8005088F80050412823D06A
:103A1000452821D008E08CF8005088F8002003E009
:103A20008CF8002088F800501D70DFEDE20AE34EAC
:103A3000E14FDFF88C9396ED000A9FEDE28AD84BB8
:103A4000DFF884A358285B7812D0592813D07B283C
:103A50001BD07D281FD012E0E668761CE660052E9C
:103A600004D1DA4EE5603270D94E35701F70DCE754
:103A700030EE200A01E030EE600A86ED000A207880
:103A8000012803D0022808D0A1E02270F9545B1C61
:103A900063709CE0BFE084F800B0F878502804D050
:103AA0007878232803D0A3702BE0CA48027085E001
:103AB0006178081A04F04DFE41EC110B9FEDC60B26
:103AC00002F066F8A078B0EE409A80463844F0EEF6
:103AD000609A10F8010C303804F03BFE53EC192BBF
:103AE00004F09EFE41EC190B206905F08FF953ECB0
:103AF000192B04F0EBFB04F0B7FB2061A8F10100E7
:103B0000A070A0780428D3D2B548007830B1052839
:103B100019D006282CD004283FD04FE078783038D0
:103B200003284BD2DFE800F002070B0094ED040AF3
:103B300086ED000A42E094ED040AAA483CE094EDC8
:103B4000040AA94838E078783038032836D2DFE80C
:103B500000F002070B0094ED040A8AED000A2DE044
:103B600094ED040AA14827E094ED040AA04823E05C
:103B700078783038032821D2DFE800F002070B0004
:103B800094ED040A89ED000A18E094ED040A9948BE
:103B900012E094ED040A98480EE078783038032853
:103BA0000CD2DFE800F00206340094ED040A9348DA
:103BB00002E094ED040A924880ED000A25706570D9
:103BC000A57084ED048A32217B48FCF765FC96EDF4
:103BD000000AB5EEC00AF1EE10FA01D286ED008AB5
:103BE00099ED000AB5EEC00AF1EE10FA01D289EDA6
:103BF000008A9AED000AB5EEC00AF1EE10FA01D281
:103C00008AED008A6649012208317E48BBE094EDC6
:103C1000040A7D48D0E77D4988426FD1DFF880C132
:103C20005F480CF109069CF804109CF80580E778C1
:103C300008EB480C764B093036780CEB030900781A
:103C40000E4407F1010C08F10108F6B20CF0FF0C6C
:103C500008F0FF0A6C2F4DD2DFE807F0363C434DE9
:103C60005156595C61665C61665C61665C61665C6C
:103C700061665C61665C61665C61665C61665C6134
:103C8000665C61665C61665C61665C61665C61661F
:103C90005C61665C61665C61665C61665C61665C19
:103CA00061665C61665C61665C61665C61665C6104
:103CB000665C61665C61665C61665C61665C6166EF
:103CC0005C616668686E7277A5280CD11870E27026
:103CD000A5310EE05A2806D1587084F803B05A3145
:103CE00007E06C2801D0E5703CE098700320E0709C
:103CF0006C31217137E0D870042024E038E018716D
:103D0000052020E026712EE0587106201BE09871F6
:103D1000072018E000F07F0189F8071001E089F81A
:103D2000080084F803C0EDE789F8090084F803C0AF
:103D3000267184F805A016E083F867006A2002E087
:103D400083F868006B20E070DCE783F86900E570B9
:103D50006571884202D103F061FA03E06A212C48C0
:103D6000FCF79AFB25710E490122093129480AE026
:103D7000294988420DD10A480949801D012200784D
:103D8000E0712648891DBDEC048BBDE8F05FFFF7AC
:103D9000EDBDBDEC048BBDE8F09F00000044004089
:103DA000380200202E0100206C0100206D0100204F
:103DB0006E0100200000C842A9310020F000002060
:103DC0005C00002000000000600000202C010020AA
:103DD0002D0100206F0100200000000000002440A1
:103DE0004D00002024010020280100201C0100209B
:103DF000200100201401002018010020940100205F
:103E000098010020EC0600209C010020005000409A
:103E1000B40700206406002000100140A80600201E
:103E20007047FEE7174830EEC00A1749D0ED0C0A7C
:103E3000174A91ED001A70EE600A144960EE810A8B
:103E400091ED001A41EE000A90ED0B1A70EE810A16
:103E500010EE901AC0ED0B0A914203DDDFED0D0A62
:103E6000C0ED0B0A10EE901A0B4A914203D9DFED18
:103E70000B0AC0ED0B0A80ED0C0ABDEEE00A10EE55
:103E8000100A70474C000020240100202801002067
:103E90000040834600408346004083C6004083C6FE
:103EA000174830EEC00A1749D0ED0F0A174A91EDB6
:103EB000001A70EE600A144960EE810A91ED001A52
:103EC00041EE000A90ED0E1A70EE810A10EE901A83
:103ED000C0ED0E0A914203DDDFED0D0AC0ED0E0AC2
:103EE00010EE901A0B4A914203D9DFED0B0AC0ED98
:103EF0000E0A80ED0F0ABDEEE00A10EE100A7047C0
:103F00004C000020240100202801002000408346AE
:103F100000408346004083C6004083C6174830EE09
:103F2000C00A1749D0ED120A174A91ED001A70EE37
:103F3000600A144960EE810A91ED001A41EE000A10
:103F400090ED111A70EE810A10EE901AC0ED110A70
:103F5000914203DDDFED0D0AC0ED110A10EE901A5B
:103F60000B4A914203D9DFED0B0AC0ED110A80ED37
:103F7000120ABDEEE00A10EE100A70474C00002055
:103F80002401002028010020004083460040834691
:103F9000004083C6004083C6174830EEC00A174968
:103FA000D0ED150A174A91ED001A70EE600A144917
:103FB00060EE810A91ED001A41EE000A90ED141AAC
:103FC00070EE810A10EE901AC0ED140A914203DDE2
:103FD000DFED0D0AC0ED140A10EE901A0B4A914263
:103FE00003D9DFED0B0AC0ED140A80ED150ABDEE12
:103FF000E00A10EE100A70474C0000202401002057
:10400000280100200040834600408346004083C6CC
:10401000004083C6094A68B109490B685B1C0B6004
:10402000834206D1D2F8B002C043C2F8B0020020E9
:10403000086070470120C2F8B0027047000040429B
:10404000840100202DE9F047324D334900242DED45
:10405000028BF6EE008AC5ED008AD1E91E26DFF854
:10406000BCC0DFF8BC902F4B20464FF4906A00BFD5
:1040700003EBC0077F6807EB0C08C8450DD216B9E3
:1040800033F83020012633F8307002F164084745D8
:1040900003D2641C00EE107AE4B2401C5045E7DB0A
:1040A000C1E91E2620489FED218A214E0078214F2C
:1040B00088B101280FD000EE902AB8EE400AF8EE41
:1040C000600AFCF717FD87ED000AC5ED008A86ED52
:1040D000008A7CB112E000EE902AB8EE400AF8EEB9
:1040E000600AFCF707FD86ED000AC5ED008A87ED42
:1040F000008AEEE786ED008A87ED008A97ED001AC8
:10410000D6ED000AB0EE680ABDEC028BBDE8F047C0
:10411000FCF798BE4C0100204C000020FFFF79BC4A
:10412000FFFF010020080020ED000020000000003B
:10413000500100205401002000EE900A41421E4A26
:10414000B8EEE01A00EE901A00B592ED010AF8EE12
:10415000E00A04F03EF800EE900A82ED010A174AE8
:10416000B8EEE01A00EE901A92ED010AF8EEE00ABD
:1041700004F02FF800EE900A82ED010A104AB8EE22
:10418000E01A00EE901A92ED010AF8EEE00A04F04F
:1041900020F800EE900A82ED010A0A4AB8EEE01A11
:1041A00000EE901A92ED010AF8EEE00A04F011F820
:1041B00082ED010A00BD000064070020780700209E
:1041C0008C070020A00700207FB50024164800942B
:1041D000019402941349039401604FF48031C0E9C3
:1041E00001140461047680F820401049C0E90A14E3
:1041F0000125C561C46080F830404561FDF754FD7C
:1042000008B1FDF7C7F80820CDE90005694602941A
:104210000548FDF705FC08B1FDF7BCF80248FDF7BD
:10422000F5FD7FBD002001404C0300200100000F80
:104230002DE9F04387B014216846FCF74FF9464852
:104240000024016841F010010160016801F01001D3
:104250000591016841F080010160016801F0800171
:104260000591016841F001010160016801F001015F
:104270000591016841F004010160016801F0040149
:104280000591016841F002010160016801F002013D
:104290000591016841F00801016000682F4F00F0AE
:1042A00008004FF4A8550590002229463846FDF72E
:1042B00084FFDFF8AC804FF4F046002231464046E0
:1042C000FDF77BFFDFF89C900022B9154846FDF70B
:1042D00074FF012211034846FDF76FFF0095012589
:1042E00001950295694638460395FDF769FEE80396
:1042F000CDE900040220029069463846FDF760FED1
:104300000096CDE90154694640460394FDF758FEF6
:104310004FF488500090CDE9015469464846039413
:10432000FDF74EFE08208DE8310069464046FDF756
:1043300047FECDE90054694638460294FDF740FE39
:104340000C20CDE90004694648460294FDF738FE8A
:1043500007B0BDE8F0830000303802400010024092
:10436000000C02400000024010B588B01C216846D5
:10437000FCF7B4F8174816490024C0E9001444F2C9
:104380009F11C0E90241802104618161FEF7E4FAD6
:1043900008B1FCF7FFFF0F48FEF7F7FE08B1FCF786
:1043A000F9FF6020CDE90004029400226946094823
:1043B0000494FEF784FE08B1FCF7ECFF00210548E9
:1043C000FEF712FF0348FEF7EFFD08B010BD000036
:1043D000004401408C05002010B588B01C216846BF
:1043E000FCF77CF8174816490024C0E9001444F291
:1043F0009F11C0E90241802104618161FEF7ACFA9E
:1044000008B1FCF7C7FF0F48FEF7BFFE08B1FCF785
:10441000C1FF6020CDE900040294002269460948EA
:104420000494FEF74CFE08B1FCF7B4FF00210548E8
:10443000FEF7DAFE0348FEF7B7FD08B010BD000036
:1044400000480140D40500201FB50021114800910B
:10445000019102910E4A0391026042F2CF02C0E93B
:1044600001216322C0E9032180218161FEF774FAF2
:1044700008B1FCF78FFF4FF4805000906946054863
:10448000FEF738FB002801D0FCF784FF1FBD0000B9
:10449000001800401C06002010B596B000240F94B0
:1044A00010941194129413941C2168461494FCF7F0
:1044B00015F8202107A8FCF711F83C483A49C0E953
:1044C000001444F29F11C0E9024180210461C0E957
:1044D0000541FEF741FA08B1FCF75CFF4FF480504C
:1044E0000F900FA93148FEF705FB08B1FCF752FF0A
:1044F0002E48FEF74AFE08B1FCF74CFF139413A9AF
:104500002A481494FEF7E0F908B1FCF743FF602055
:10451000CDE90004029403940494059400226946B2
:1045200022480694FEF7CBFD08B1FCF733FF0422C6
:1045300069461E48FEF7C3FD08B1FCF72BFF0822B1
:1045400069461A48FEF7BBFD08B1FCF723FF0C22B1
:1045500069461648FEF7B3FD08B1FCF71BFF079448
:10456000089409944FF400500A94CDE90B4007A930
:104570000E480E94FEF77EF908B1FCF70BFF002100
:104580000A48FEF731FE04210848FEF72DFE0821F7
:104590000648FEF729FE0C210448FEF725FE0348D5
:1045A000FEF702FD16B010BD00000140940300208C
:1045B00010B58CB024216846FBF790FF0024194801
:1045C00009944FF080410A94C0E900144FF6FF713E
:1045D000C0E90241046184610320CDE900040120A7
:1045E000CDE902040494CDE90540079469460D48DD
:1045F0000894FEF7EDFA08B1FCF7CCFE099409A97E
:1046000008480A94FEF760F908B1FCF7C3FE0021E0
:104610000448FEF7CDFB04210248FEF7C9FB0CB0AD
:1046200010BD0000DC03002010B58CB024216846CA
:10463000FBF754FF00241948099417490A94C0E96C
:1046400000144FF6FF71C0E9024104618461032048
:10465000CDE900040120CDE902040494CDE9054030
:10466000079469460D480894FEF7B2FA08B1FCF7C2
:1046700091FE099409A909480A94FEF725F908B1A1
:10468000FCF788FE00210548FEF792FB0421034851
:10469000FEF78EFB0CB010BD000400402404002087
:1046A00010B58CB024216846FBF718FF0024194888
:1046B000099417490A94C0E900144FF6FF71C0E944
:1046C0000241046184610320CDE900040120CDE9A9
:1046D00002040494CDE90540079469460D48089406
:1046E000FEF776FA08B1FCF755FE099409A90948C6
:1046F0000A94FEF7E9F808B1FCF74CFE00210548E2
:10470000FEF756FB04210348FEF752FB0CB010BD28
:10471000000800406C04002010B58CB024216846CD
:10472000FBF7DCFE00241948099417490A94C0E9F4
:1047300000144FF6FF71C0E9024104618461032057
:10474000CDE900040120CDE902040494CDE905403F
:10475000079469460D480894FEF73AFA08B1FCF749
:1047600019FE099409A909480A94FEF7ADF808B1A1
:10477000FCF710FE00210548FEF71AFB0421034850
:10478000FEF716FB0CB010BD000C0040B404002076
:1047900010B596B000240F941094119412941394B1
:1047A0001C2108A81494FBF799FE20216846FBF70A
:1047B00095FE2D482B490160A721C0E9011442F262
:1047C0000F71C0E903148021C0E90541FEF7C4F868
:1047D00008B1FCF7DFFD4FF480500F900FA922487D
:1047E000FEF788F908B1FCF7D5FD1F48FEF7CDFCB0
:1047F00008B1FCF7CFFD139413A91B481494FEF7DE
:1048000063F808B1FCF7C6FD6020CDE908040A94FE
:104810000C940D940C2208A913480E94FEF74FFC3B
:1048200008B1FCF7B7FD00944FF40050CDE9044007
:1048300002940194039469460B480794FEF71AF812
:1048400008B1FCF7A7FD0848FEF7AEFB0C210648AF
:10485000FEF7CAFC034940F2DC504031086016B054
:1048600010BD000000040140FC04002010B58CB015
:1048700000240794089409941C2168460A94FBF7C5
:104880002DFE22482049C0E9001444F29F11C0E9DE
:104890000241802104618161FEF75EF808B1FCF7F6
:1048A00079FD4FF48050079007A91848FEF722F9C8
:1048B00008B1FCF76FFD1548FEF767FC08B1FCF77F
:1048C00069FD6020CDE900040294002269460F488A
:1048D0000494FEF7F4FB08B1FCF75CFD0422694682
:1048E0000A48FEF7ECFB08B1FCF754FD002107482D
:1048F000FEF77AFC04210548FEF776FC0348FEF734
:1049000053FB0CB010BD00000040014044050020E6
:104910000E4810B50C4901604FF4E12141600021BF
:1049200081600C22C160C0E904128161C161FEF79F
:1049300049FF08B1FCF72EFDBDE8104001220449F3
:104940000248FFF713B80000005000406406002042
:10495000410200200E4810B50C4901604FF4E131CE
:104960004160002181600C22C160C0E904128161B4
:10497000C161FEF727FF08B1FCF70CFDBDE8104050
:10498000012204490248FEF7F1BF00000010014077
:10499000A80600203E0200200E4810B50C49016018
:1049A0004FF416514160002181600C22C160C0E9C2
:1049B00004128161C161FEF705FF08B1FCF7EAFC52
:1049C000BDE81040012204490248FEF7CFBF0000B5
:1049D00000440040EC06002040020020FEE7FEE715
:1049E00010B40021084B0A465FF0000003EBC0043E
:1049F000401CC0B262548028F8D3491CC9B20829AF
:104A0000F2D310BC00F0ACB8A02D002010B57F2868
:104A100016D83F2914D80723A3EBD10301F00701CF
:104A2000C1F107040121A140064CDBB204EBC00038
:104A3000002AC25CC9B201D00A4300E08A43C254D2
:104A400010BD0000A02D00202DE9F04116460D46B6
:104A500007460024FFF7DAFF324629463846FFF7BB
:104A6000D5FF2819C1B232463846FFF7CFFF641C84
:104A7000E4B2082CF5D3BDE8F0810000374800B55A
:104A80000021C0F8B0120121C0F8B0120021AE2000
:104A900000F04AF90021D52000F046F9002150200D
:104AA00000F042F90021A82000F03EF900213F204B
:104AB00000F03AF90021D32000F036F90021084631
:104AC00000F032F90021402000F02EF900218D2065
:104AD00000F02AF90021142000F026F900212020FE
:104AE00000F022F90021022000F01EF90021A1208F
:104AF00000F01AF90021C02000F016F90021DA2098
:104B000000F012F90021122000F00EF9002181209E
:104B100000F00AF90021EF2000F006F90021D92069
:104B200000F002F90021F12000F0FEF80021DB2066
:104B300000F0FAF80021302000F0F6F80021A4205F
:104B400000F0F2F80021A62000F0EEF80021AF20DE
:104B500000F0EAF85DF804EBFFF742BF0080414245
:104B600070B5114E002400BF04F1B000C0B20021A6
:104B700000F0DAF80021084600F0D6F800211020F5
:104B800000F0D2F85FF0000506EBC5000121005DE2
:104B900000F0CAF86D1CEDB2802DF5D3641CE4B2B0
:104BA000082CE1D370BD0000A02D00202DE9FF4F9F
:104BB000203A1F460C46894602F0FF0A0025DDF820
:104BC00034B032E00C2F09D01A4901EB0A104FF033
:104BD0000008465D300607D55A4609E016490AEB3B
:104BE0004A0001EB8000F2E7BBF1000F12D0002277
:104BF00021460098FFF70AFF7006641C060EE4B217
:104C0000A4EB0900B84207D100984C46401CC0B242
:104C1000009008E00122EBE708F1010000F0FF0836
:104C2000B8F1080FD6D36D1CEDB2BD42CAD3BDE8B2
:104C3000FF8F00007E9400080A9000082DE9FF4FC6
:104C400081B00026DDF838A01D46934681463446E3
:104C50004FF001084FEA5A0727E0281B401EC1B257
:104C60000A2002F055FCBBFBF0F00A21B0FBF1F288
:104C700001FB120026B9691E8C4201DA48B10126F7
:104C80003030C2B207FB0490C0B25346CDF800806A
:104C900006E007FB0490C0B253462022CDF8008006
:104CA0000299FFF783FF641CE4B2AC42D5D305B090
:104CB000BDE8F08FF8B516460D460446012714E00E
:104CC0007A2C02D900241035EDB23A2D03D90024F4
:104CD0002546FFF785FE009732780C2329462046AB
:104CE000FFF764FF0834E4B2761C30780028E7D17F
:104CF000F8BD000070B50A4D0A4E002435F81400C6
:104D00003188884201D2012200E0002200212046A1
:104D1000FFF79AFE641CE4B2802CEFD370BD000054
:104D20004C0200201000002030B500230E4A012460
:104D300011B1C2F8AC4201E0C2F8AC325FF0000140
:104D4000C2F8B832050602D5C2F8B44201E0C2F892
:104D5000B432C2F8B8424006491C000EC9B2082954
:104D6000EED3C2F8AC4230BD00804142002004497D
:104D700002460A54401CC0B20928FAD3704700000A
:104D8000A03100202DE9F84301258146ADF80050FF
:104D90001F4800264670ADF800501E4C80464FF666
:104DA000FF772BE0BDF8000010EA090F02D0C4F82D
:104DB000B05201E0C4F8B062102002F0F3FAC4F877
:104DC000A052052002F0EEFAC4F8A062052002F01D
:104DD000E9FAC4F8A052D4F83C0230B198F80110B6
:104DE000BDF80020114388F80110102002F0DAFA13
:104DF000BDF8000007EA4000ADF80000BDF8000073
:104E0000FF28CFD9BDE8F843102002F0CBBA00004C
:104E1000A03100200000424270B5FFF7A7FF00F06C
:104E200071F80B480B4BB0F803100A480833418067
:104E30000020012413F8105000F101006D1E04FA47
:104E400005F20A42C0B202D01028F3D3002070BD90
:104E5000A03100201002002010B5FFF7DDFF1A4935
:104E60001B4B1D4C08601949CA791A60194B0A7A04
:104E70001A604B792360194B89791960184901230D
:104E800004281CD04868002818D0762A16DA15485D
:104E90000178002912D114490370002008701448C9
:104EA0009FED120A80ED000A12480178124802298B
:104EB00007D09FED120A00BF80ED000A10BD4B60C5
:104EC000E3E79FED0F0AF7E748010020A03100203B
:104ED000380100203C010020400100204401002056
:104EE000100200202D0100202C010020CDCC4C3ED2
:104EF000CC000020ED000020D00000209A99993EBF
:104F0000DB0F493F2DE9FC4100268DF800600124AC
:104F1000ADF80440244DC5F8A862244F3878FFF757
:104F200031FF7878FFF72EFF02208DF80000DFF8C0
:104F300080804FF6FF772FE0ADF8044020E000BFFF
:104F4000C5F8A042052002F02DFAC5F8A0620520A0
:104F500002F028FAC5F8A042D5F83C0250B19DF8FD
:104F60000010BDF8042018F8011011439DF800202E
:104F700008F80210BDF8040007EA4000ADF804008C
:104F8000BDF80400FF28DBD9102002F00BFA9DF8D1
:104F90000000401C8DF800009DF800000928CBD3CC
:104FA000C5F8A842BDE8FC81000042421002002082
:104FB000A03100207047000070B5154E0421304626
:104FC000FDF7F6F8134C144D50B108213046FDF7AB
:104FD000EFF8B8B1A078012816D0022802D005E079
:104FE0000220A070BEEE000A85ED000A0B4895ED88
:104FF000000A90ED001A0A48D0ED000ABDE87040A2
:10500000FBF720BF0120A070B6EE000AECE700001D
:10501000000002404C0000204C0100205401002000
:10502000500100202DE9F04700261B4C3546314643
:10503000C4F89462194AC2F8906202F5247204F529
:105040002574FBF7F9FE01271760FBF7F5FE2160D9
:10505000FBF7F2FE2760A4F52574FBF7EDFE116067
:10506000FBF7EAFEDFF83890884600BFC4F8948268
:10507000FBF7E2FE0420FCF709FA010929F81510F4
:105080006D1CEDB2C4F89472FBF7D6FE761CF6B236
:10509000802EEBD3BDE8F087000040420000414283
:1050A0004C0200200021022807D003280BD004283E
:1050B0000BD005280BD0002070474FF08042506A7B
:1050C000516200B27047044A02E0044A00E0044A18
:1050D0001068116000B270472404004024080040AA
:1050E000240C004010B551EC100B2DED068BB0EEEA
:1050F000438AF0EE629AB0EE42AAB0EE619AF0EE08
:10510000418A03F0B1F8BDEECA0A154910EE102A23
:10511000BDEEE90A0860C1ED018A10EE103A81ED9A
:10512000059AC1E9022381ED048A9900514300EEFA
:10513000101A0C49B8EEC00A81ED000A9FED0A0A68
:105140000A4928EE000A81ED000A09490860094869
:10515000C0ED008A084880ED009ABDEC068B10BDBA
:105160004007002058010020DB0F49405C0100206F
:1051700060010020640100206801002010B52D4C62
:105180004FF4AD700A2120600920FCF7F9FB21687B
:1051900090FBF1F0C1B228480529017001D9052121
:1051A0000170C8B2DFED252A9FED251A9FED253A43
:1051B00006283DD2DFE800F0030E17202730F0EE7E
:1051C000411A9FED213AB3EE0E2A9FED201A9FED72
:1051D000200B29E09FED203AB3EE0E2ADFED1F1AD7
:1051E0009FED1F0B20E0F0EE411AB3EE0E2A9FED6B
:1051F0001E1A9FED1E0B17E0B3EE0E2AF0EE411AB9
:105200009FED1C0B10E0F0EE411AB3EE0E2A9FED5D
:105210001B1A9FED1B0B07E09FED1B3A9FED1B0B2D
:10522000B3EE0E2AF0EE411ABDE81040FFF75ABF68
:1052300010BD000030010020ED0000200000FA4306
:1052400000000000B81E853D9A99993D7B14AE3D43
:10525000022B8716D9CEB73F8FC2753DE17A943EB7
:105260000000000000000000BC74133E000000803D
:105270006ABCC43F000000A0EFA7C63FE926313E4C
:10528000000000C09DEFC73FC520303D000000E09A
:105290007A14CE3F70470000F0B5174E174F059DAA
:1052A00044F2A014002803DA34602044386002E09D
:1052B0003C60201A30601248002903DA446321441C
:1052C000816302E08463611A41630E48002A03DAB5
:1052D00044631119816302E08463A11A4163002BC6
:1052E00003DA04641919C16302E0C463E11A0164BA
:1052F00005480560F0BD00003448014034440140D9
:1053000000400140000001404004014000B5B0EE03
:10531000602AF0EE411AF0EE400A9FED470A474836
:1053200090ED001ADFED462AF5EEC00AF1EE10FA14
:1053300002DD31EE001A0EE0F5EEC00AF1EE10FAD1
:1053400002D231EE401A06E0F5EEC00AF1EE10FA94
:1053500003D121EE221A80ED001A3849B5EEC02A99
:1053600091ED011AF1EE10FA02DD31EE001A0EE0B5
:10537000B5EEC02AF1EE10FA02D231EE401A06E084
:10538000B5EEC02AF1EE10FA03D121EE221A80ED1B
:10539000011A2A49F5EEC01A91ED021AF1EE10FA3F
:1053A00002DD31EE000A0EE0F5EEC01AF1EE10FA61
:1053B00002D231EE400A06E0F5EEC01AF1EE10FA24
:1053C00003D121EE220A80ED020AB0EE600A02F05B
:1053D0000FF8B0EE401AB0EE600A02F009F8F1EEF4
:1053E000400A90ED000A02F0F4FE80ED000AB0EEF3
:1053F000420A01F0FDFFB0EE401AB0EE420A01F0A1
:10540000F7FFF1EE400A90ED010A02F0E2FE80EDB6
:10541000010AB0EE610A01F0EBFFB0EE401AB0EE07
:10542000610A01F0E5FFF1EE400A90ED020A02F098
:10543000D0FE80ED020A00BDCDCC4C3D58070020C7
:105440006666663FFCF7C4BE30B593B0302168464F
:10545000FBF744F814210CA8FBF740F81D48002581
:10546000016841F080510160006800F080501190A7
:105470001948016841F4804101600068022400F489
:105480008040119001200390102000940694049015
:10549000CDE907504FF4A870CDE9090404200B9022
:1054A0006846FDF71BF808B172B6FEE70CA90F209D
:1054B00081E831004FF4A0500F904FF480501090CD
:1054C00005210CA8FCF71EFF002801D072B6FEE7EC
:1054D00013B030BD403802400070004002480168FF
:1054E00041F470010160704788ED00E010B5044898
:1054F000FDF7A6FCBDE810400248FDF7A1BC000086
:10550000FC0400201C060020F0B50268254C264D46
:10551000264E274F274B4FF0804CA04209D06045C4
:1055200007D0A84205D0B04203D0B84201D098427B
:1055300004D122F0700E4A6842EA0E02A0421BD04B
:10554000604519D0A84217D0B04215D0B84213D048
:10555000984211D0184DA8420ED0184DA8420BD039
:10556000174DA84208D0174DA84205D0164DA842A5
:1055700002D0164DA84203D122F44075CA682A43CE
:105580004D6922F080022A4302608A68C2620A687A
:105590008262A04201D0984201D1096901630121D0
:1055A0004161F0BD000001400004004000080040DF
:1055B000000C004000040140004001400044014054
:1055C0000048014000180040001C0040002000403E
:1055D00010B501F01F030121046A99408C43046255
:1055E000016A9A401143016210BD10B5846842EA15
:1055F000032224F47F440A432243826010BD826860
:1056000022F070020A4342F00701816070470000F7
:10561000F0B5026A22F001020262036A42688469FC
:10562000124E24F073050C682C4323F002058B689E
:105630002B430D4DA84201D0B04205D123F00807FD
:10564000CB683B4323F00403A84201D0B04205D10C
:105650004D6922F4407215438A692A43426084618D
:10566000496841630362F0BD00000140000401404D
:10567000F0B5026A22F010020262026A436884698D
:105680000D6824F4E64444EA05248D6822F02002E3
:1056900042EA05120F4D104EA84201D0B04206D189
:1056A000CF6822F0800242EA071222F04002A842AC
:1056B00001D0B04207D14D6923F4406343EA85032A
:1056C0008D6943EA850343608461496881630262AE
:1056D000F0BD00000000014000040140F0B5026A86
:1056E00022F480720262026A4368C46922F4007282
:1056F00024F073050C68124E2C438D6842EA052293
:105700000E4DA84201D0B04206D1CF6822F400620B
:1057100042EA072222F48062A84201D0B04207D1B7
:105720004D6923F4405343EA05138D6943EA051399
:105730004360C4614968C1630262F0BD000001407A
:105740000004014030B5026A22F480520262046A09
:105750004268C3690D6823F4E64343EA05238D6874
:1057600024F4005444EA0534084DA84202D0084D00
:10577000A84204D14D6922F4804242EA8512426077
:10578000C36149680164046230BD0000000001404B
:105790000004014010B5036A046A24F001040462A5
:1057A000846924F0F00444EA021423F00A020A4354
:1057B0008461026210BD10B5036A23F01003036216
:1057C0008369046A23F4704343EA023224F0A0039D
:1057D00043EA01118261016210BD00000A2809DB61
:1057E0000548D0F80C0228B104480078012801D0FF
:1057F000002070470120704700804142EC000020EB
:105800000148FDF7ABBE00006406002010B5806BB8
:105810000021C185C184FDF79FFE10BD01680C31D8
:1058200051E8002F22F4907241E80023002BF5D1BB
:105830000168143151E8002F22F0010241E80023F1
:10584000002BF5D1016B012909D101680C3151E818
:10585000002F22F0100241E80023002BF5D1202177
:1058600080F83E1000210163704708B590F83E10A3
:10587000222901D0022008BD82684FF480539A4249
:1058800001D1016921B1816A9A421BD04AB10AE073
:105890000268816A5268C2F308020A80816A891C20
:1058A00008E0026972B10268526802F07F020A7071
:1058B000816A491C8162C18D491E0904090CC18598
:1058C00003D019E002685268F1E70168CA6822F063
:1058D0002002CA600168CA6822F48072CA60016846
:1058E0004A6922F001024A61202180F83E10016BD2
:1058F000012903D0FEF750F8002008BD0021016304
:1059000001680C3151E8002F22F0100241E8002319
:10591000002BF5D101680A68D20602D50A684968E9
:105920000091818DFDF717FEE6E7000070B5044693
:1059300000680169E26821F4405111430161216965
:10594000A068E26908436169114308432168CA6895
:1059500049F20C639A430243CA6020684169A26914
:1059600021F440711143416131492068884202D0DD
:105970003049884202D1FCF76FFD01E0FCF75CFD85
:10598000E2690023192164253226B2F5004F6268CE
:1059900028D0A0FB0101930F9200FAF789FC014681
:1059A000B0FBF5F06FF01802504301EB800006EBFE
:1059B0000010B0FBF5F000F0F002B1FBF5F002EBE7
:1059C0000012B1FBF5F06FF01803584301EB8000B3
:1059D00006EB0010B0FBF5F000F00F00216810445A
:1059E000886070BDA0FB010192185B41FAF760FC72
:1059F0000146B0FBF5F00201B1FBF5F06FF01803C2
:105A0000584301EB800006EBC000B0FBF5F000F05E
:105A1000F80002EB4002B1FBF5F0584301EB8000C7
:105A200006EBC000B0FBF5F000F00700D6E7000081
:105A3000001001400014014081628285C28500216E
:105A40000164222280F83E2080F83C10016921B1D7
:105A50000168CA6842F48072CA6001684A6942F00B
:105A600001024A610068C16841F02001C160002064
:105A7000704700000148FDF771BD0000A806002036
:105A80000148FDF76BBD0000EC060020FEE70000BA
:105A900070B5294C00252948E17906294AD2DFE86A
:105AA00001F0030818202F3E0121FCF781FBA0B173
:105AB00040E0218A491C89B2218205293AD101217D
:105AC000FCF776FB10B12582E57133E0E079401CEC
:105AD00011E00121FCF76CFB48B3E079401CE07158
