:020000040800F2
:1000000028380020710200081F5000085B410008DA
:100010001D5000087D0C00088162000800000000EF
:10002000000000000000000000000000895A0008E5
:100030008F0D00080000000005580008395C00081A
:100040008B0200088B0200088B0200088B0200085C
:100050008B0200088B0200088B0200088B0200084C
:100060008B0200088B0200088B0200088B0200083C
:100070008B0200088B0200088B0200088B0200082C
:100080008B0200088B020008C10600088B020008E2
:100090008B0200088B0200088B0200088B0200080C
:1000A0008B0200088B0200088B0200088B020008FC
:1000B0008B0200088B0200088B0200088B020008EC
:1000C0008B0200088B0200088B0200088B020008DC
:1000D0008B02000869620008756200088B02000844
:1000E0008B0200088B0200088B020008E15C00080C
:1000F0008B0200088B0200088B0200088B020008AC
:100100008B0200088B0200088B0200088B0200089B
:100110008B020008F55F00088B0200088B020008C4
:100120008B0200088B0200088B0200088B0200087B
:100130008B0200088B0200088B0200088B0200086B
:100140008B0200088B0200088B0200088B0200085B
:100150008B0200088B0200088B0200088B0200084B
:100160008B0200088B0200088B0200088B0200083B
:100170008B0200088B0200088B02000800000000C0
:100180008B0200088B02000800F002F800F061F812
:100190000AA090E8000C82448344AAF10107DA45E2
:1001A00001D100F056F8AFF2090EBAE80F0013F0D3
:1001B000010F18BFFB1A43F001031847ECAB000016
:1001C0000CAC00000A444FF0000C10F8013B13F097
:1001D000070408BF10F8014B1D1108BF10F8015BA0
:1001E000641E05D010F8016B641E01F8016BF9D193
:1001F00013F0080F1EBF10F8014BAD1C0C1B09D1EA
:100200006D1E58BF01F801CBFAD505E014F8016B5B
:1002100001F8016B6D1EF9D59142D6D370470000ED
:100220000023002400250026103A28BF78C1FBD8FF
:10023000520728BF30C148BF0B607047642900F0E7
:10024000EF80002070471FB509F0F1F91FBD10B510
:1002500010BD00F007FA1146FFF7F5FF07F0E4FCC8
:1002600000F025FA03B4FFF7F2FF03BC07F0D0FB60
:100270000948804709480047FEE7FEE7FEE7FEE73A
:10028000FEE7FEE7FEE7FEE7FEE7FEE70448054976
:10029000054A064B70470000D15C00088901000840
:1002A000283200202838002028340020283400205C
:1002B00053EA020C00F069802DE9F04B4FF0000684
:1002C000002B1FBFB3FA83F503FA05F424FA05F6F1
:1002D0005E4012BF1643B2FA82F502FA05F4C5F188
:1002E00020051EBF22FA05FC44EA0C04203556EA1C
:1002F000044C4FEA144418BF641C4FF000084FF040
:100300000009904271EB030C39D3002919BFB1FAEF
:1003100081F701FA07F6B0FA80F700FA07F6C7F19D
:1003200020071EBF20FA07FC46EA0C062037B6FB62
:10033000F4FCA7EB0507103F07F01F0BCBF12006DD
:100340000CFA0BFB2CFA06F644BFB3460026202F0E
:10035000A4BF5E464FF0000B5BEA060C08BF4FF0EF
:10036000010B19EB0B09ABFB027C48EB0608C01B29
:1003700006FB02CC0BFB03CC71EB0C01C1E70B4677
:10038000024641464846BDE8F08B13B54FF00000E9
:100390004FF00001AFF30080BDE81C407047000043
:1003A0000FB4044910B503AA029800F025F910BC57
:1003B0005DF814FB340000202DE9F0410E460446A0
:1003C000002020622046E168884730B3252805D008
:1003D000D4E901219047206A401CF2E7E1682046F9
:1003E00000278847050018D0A5F14100192802D838
:1003F00020354FF400673246294620462760FFF734
:100400001DFF40B1012804D0F61D26F0070608366E
:10041000D8E7361DD6E72846DAE7206ABDE8F0813E
:100420002DE9F0410646002410687529314616A5CD
:1004300010D0AFF30080002802DA404213A507E095
:1004400031688A0701D512A502E0490704D511A534
:10045000012401E0AFF3008000210A2206F1240705
:1004600009E0B0FBF2FCB0FBF2F302FB1C00303001
:1004700078541846491C0028F3D123462A463046B2
:10048000BDE8F04100F05FB8000000002D00000062
:100490002B000000200000004FF000020429C0F0F3
:1004A000128010F0030C00F01B80CCF1040CBCF1A6
:1004B000020F18BF00F8012BA8BF20F8022BA1EBF8
:1004C0000C0100F00DB85FEAC17C24BF00F8012BDD
:1004D00000F8012B48BF00F8012B70474FF00002D5
:1004E00000B5134694469646203922BFA0E80C502A
:1004F000A0E80C50B1F12001BFF4F7AF090728BF05
:10050000A0E80C5048BF0CC05DF804EB890028BF80
:1005100040F8042B08BF704748BF20F8022B11F0A9
:10052000804F18BF00F8012B704770477047704725
:1005300010B500F073F8006810BD10B5044600F067
:100540006DF8046010BD2DE9F0470D4699469246BE
:10055000044600F124080168880604D5E06921F00A
:100560001001216000E00120A84201DD471B00E0EE
:100570000027A1697A1902EB0900081AA061207806
:10058000C00602D42046AFF30080002608E0D4E97C
:1005900001211AF806009047206A401C761C206250
:1005A0004E45F4DB2078C0060AD52046AFF3008024
:1005B00006E0D4E9012130209047206A401C2062E7
:1005C000381EA7F10107F4DC07E0D4E9012118F88F
:1005D00005009047206A401C2062281EA5F10105F5
:1005E000F3DC2046AFF300802078000602D502201D
:1005F000BDE8F0870120FBE7074B70B50D467B4453
:1006000000F015F80446284600F024F810B14FF029
:10061000FF3070BD204670BDF77500000048704780
:10062000C831002001694A1C02610878704700B592
:100630008FB0CDE901310021059105497944CDE91B
:10064000031011466846FFF7B7FE0FB000BD00006B
:10065000E5FFFFFF007B00F0800070470048704717
:10066000C83100207546FFF7F9FFAE460500694620
:10067000534620F00700854618B020B5FFF706FE68
:10068000BDE820404FF000064FF000074FF0000893
:100690004FF0000B21F00701AC46ACE8C009ACE814
:1006A000C009ACE8C009ACE8C0098D46704710B578
:1006B0000446AFF300802046BDE81040FFF7D2BDEE
:1006C000014801F0F4BB000038030020464910B592
:1006D0004A6822F440324A604A6843681A434A60D2
:1006E00001684A6822F480724A6001684A680369B6
:1006F00042EA03224A6001684A6822F040724A6076
:1007000001684A6883681A434A6001688A6822F46B
:1007100000628A6001688A68C3681A438A60816AD5
:100720006FF07062D14201688A6822F070628A605C
:1007300001688A680CD0836A1A438A6001688A68F3
:1007400022F040528A6001688A68C36A1A4301E055
:1007500022F040528A6001688A6822F002028A60B0
:1007600001688A68037E42EA43028A6090F820109A
:10077000002901684A680FD042F400624A600168AB
:100780004A6822F460424A6001684A68174C436A2A
:1007900004EB43331A4301E022F400624A6001682B
:1007A000CA6A22F47002CA620168CA6A838B104C5A
:1007B00004EB03531A43CA6201688A6822F4007288
:1007C0008A6001688A6890F8303042EA43228A6081
:1007D00001688A6822F480628A6001688A684069D8
:1007E00042EA8020886010BD0023014000E0FFFF46
:1007F0000000F0FFFEB58748D0ED000A9FED861A95
:100800009FED860A10EE810AF3EE0B0A80EE201AA5
:10081000BDEEC10A10EE103A642B00DD642380485F
:1008200090ED000ADFED7F0A20EE200ABDEEC00A3F
:1008300010EE100A002800DA40427B4991ED000AD0
:1008400020EE200ABDEEC00A10EE101A002900DAD0
:100850004942764C2278B2B10022764D2270744C17
:1008600095ED000A2678BDEEC00A012E0DD0002AB3
:1008700078D003B0CBB2BDE8F040C2B210EE101A8F
:100880006DA0FFF78DBD0122E7E76F4800780528CE
:100890001CD006282AD004283CD0032873D06B48EB
:1008A000D0ED000A6A48FDEEE00A10EE903AD0ED75
:1008B000000AFDEEE00A10EE902A00BF10EE101ABA
:1008C00064A0FFF76DFD00202070FEBD654890ED2F
:1008D000000A6548BDEEC00A10EE103A90ED000A1D
:1008E0006248BDEEC00A10EE102A0EE0604890ED9E
:1008F000000A6048BDEEC00A10EE103A90ED000A02
:100900005D48BDEEC00A10EE102A90ED000ABDEE63
:10091000C00AD3E759480078022813D0032822D010
:10092000042831D0564890ED000A5648BDEEC00A62
:1009300010EE103A90ED000A5348BDEEC00A10EEDA
:10094000102AE2E7514890ED000A5148BDEEC00A76
:1009500010EE103A90ED000A4E48BDEEC00A10EEBF
:10096000102AD2E74EE04C4890ED000A4B48BDEE0D
:10097000C00A10EE103A90ED000A4948BDEEC00AD8
:1009800010EE102AC1E70FE0464890ED000A4648F5
:10099000BDEEC00A10EE103A90ED000A4348BDEEDD
:1009A000C00A10EE102AB0E7414890ED000A414815
:1009B000FDEEC00A90ED000A3F48BDEEC00A90ED82
:1009C000001A3E48BDEEC11A8DED001A8DED010AE8
:1009D000CDED020A90ED000A3948BDEEC00A10EED6
:1009E000103A90ED000A3748BDEEC00A10EE102A0A
:1009F00090ED000A34A0BDEEC00A10EE101AFFF709
:100A0000CFFC60E7CAB2C1B2CDE9001234A0FFF753
:100A1000C7FCFEBD1400002000007A4400401C46C4
:100A2000500700200000C84264070020C0000020DA
:100A30005B010020DC0000207B4225643A25643AFB
:100A400025647D24000000005000002014010020D7
:100A5000100100207B4325643A25643A25647D24F7
:100A6000000000000C010020080100205C000020B4
:100A7000040100200001002058000020D9000020BF
:100A8000A00100209C010020980100208801002086
:100A900084010020800100207C01002078010020DA
:100AA0007401002094010020900100208C0100209E
:100AB000B8010020B4010020B0010020AC010020EA
:100AC000A8010020A40100207B4325643A25643A54
:100AD00025643A25643A25643A25647D24000000A3
:100AE0007B4125643A25643A25643A25643A2564B5
:100AF0007D24000010B530EEC01A554C554984EDE8
:100B0000161AD4ED181A71EE811A11EE900AC4ED7E
:100B1000181A9FED512A884202DD84ED182A08E058
:100B200011EE900A4D49884203D9DFED4D1AC4ED0C
:100B3000181A4C480078DFED4C1A454930EEC00ACF
:100B40000428D1ED192A30EE620A2FD0022846D0AF
:100B500003285DD005285BD0D4ED090A60EE812A18
:100B60009FED423AC2EE830AD4ED0B2A94ED183A77
:100B700062EE832A82EEA13AD4ED0A1A20EE210A0F
:100B8000C0EE021A70EEC30A30EEE10A84ED170AD5
:100B9000374884ED191A90ED000ABDEEC00A10EE38
:100BA000100A05F015FA01284BD04EE0D4ED060AE4
:100BB000D4ED182A20EE812AC2EE210A94ED082AEB
:100BC00022EE222AC2EE212A94ED072A20EE020A02
:100BD00080EE212A70EEA20A30EE820AD6E7D4ED2A
:100BE000030A94ED183A60EE812AC2EEA10AD4ED10
:100BF000052A62EE832A82EEA13AD4ED041A20EE91
:100C0000210AC0EE021A70EE830A30EEA10ABDE797
:100C1000D4ED000AD4ED182A20EE812ADFED150A62
:100C2000C2EE201A94ED022A22EE222AC2EE202AD7
:100C300071EEA20AD4ED011A41EE800AC4ED170A42
:100C4000A6E79FED0D0A84ED180A94ED170A10BD72
:100C50007401002000007A4400007A4400007AC445
:100C600000007AC4D90000200050C3470050C3C719
:100C7000140000200000C84200000000FEE7000051
:100C8000064B4FF4807130B1521C824205DB0122C9
:100C9000184601F02CBC0022FAE770470000024021
:100CA0001FB500211748009101910291144A039148
:100CB00002604FF48032C0E901210161017680F8C1
:100CC0002010114AC0E90A210124C461C16080F8E2
:100CD0003010446101F082F908B100F095FB042066
:100CE000CDE90004072002906946064801F032F879
:100CF00008B100F089FB034801F022FA1FBD000093
:100D000000200140380300200100000F70B586B0BC
:100D100014216846FFF7E2FB16480021026842F002
:100D200001020260026802F001020592026842F0CC
:100D3000040202600068102500F004000095059090
:100D40000320CDE901010C4E6946304601F0D2FA8C
:100D500001242020CDE9000469463046029401F0C8
:100D6000C9FACDE9005469460448029401F0C2FA78
:100D700006B070BD3038024000000240000802405A
:100D800010B5FFF7C3FFBDE81040FFF789BF7047FC
:100D9000F0B512480021007801281DD1104B114AEE
:100DA00000204FF0937640F2BB244FF4906700BFD1
:100DB00002EBC0056D681D44B54206D932F83050CB
:100DC0006D1EA54201D2491CC9B2401C80B2B84276
:100DD000EED309B10120F0BD0020F0BD4C00002091
:100DE000000090BD0C08002010B530EEC00A274C62
:100DF000274984ED1A0AD4ED1C0A70EE800A10EE21
:100E0000900AC4ED1C0A884202DDDFED220A06E0EA
:100E100010EE900A2049884203D9DFED200AC4ED84
:100E20001C0AD4ED0C0A94ED1C2A1E4860EE801AB0
:100E3000DFED1B0A81EEA01AD4ED0E1A61EE821AC4
:100E400081EEA02AD4ED1D1A70EE611A31EE021A5D
:100E500094ED0D2A61EE821A81EEA02A71EE020A4B
:100E6000C4ED1B0A84ED1D0A90ED000ABDEEC00A18
:100E700010EE100A05F0ACF8012803D19FED0A0A24
:100E800084ED1C0A94ED1B0A10BD000074010020C3
:100E900000007A4400007A4400007AC400007AC45A
:100EA0000000C84214000020000000000020401C88
:100EB0001E28FCDB704700002DE9F0472DED0E8B5E
:100EC000B0EE419AB0EE408AF0EE0CAAFD4BDFF88E
:100ED000F883FE4E1878FE4FF8EE0C8A9FEDFDCB9E
:100EE0009FEDFEAAFE4AFF4DFF4CF6EE009A08B1B8
:100EF000012810D1B0EE491AB0EE480A04F000FE05
:100F0000FA4890ED008A90ED01DA90ED029A187897
:100F100068B301284AD0C0B202287CD003287BD015
:100F200004287AD0052879D192ED000AB0EE6A1A29
:100F300069EE000AB0EE480A00EEE90A00EEA98A5E
:100F4000F0EE680A85ED020A84ED028A07F007FDDB
:100F500085ED020A94ED020AB0EE6A1AF0EE680A14
:100F600007F0FDFC84ED020A86ED02AAB1E098EDDF
:100F7000000AD2ED000A3DEE081A78EE4D1A70EE26
:100F8000200AB0EE410AB0EE612A09EE600A09EECD
:100F9000602A09EE201A49EE201A85ED020A84ED36
:100FA000022A86ED021AC7ED021A8AE1DFF84083B1
:100FB000F0EE4D0A98ED000A40EE090A20EE090A0B
:100FC00010EE100AC5ED020A08F0C0FA6DEE299A7B
:100FD00041EC1B0B19EE900A08F0B8FA41EC1E0B1D
:100FE00018EE100A08F0B2FA41EC1D0BB0EE4C0AF4
:100FF000F0EE6C0A05F0F0FF9FEDBE1B51EC100BFC
:1010000053EC112B07F0ACFF53EC1D2B07F0A8FF9E
:1010100053EC1E2B03E062E026E13CE15BE008F0CC
:10102000ABF953EC1B2B07F0F1FC07F0BDFCA06003
:1010300098ED000A20EE090A10EE100A08F086FA70
:1010400041EC1B0B19EE900A08F080FA41EC190BE9
:1010500018EE100A08F07AFA41EC1D0BB0EE4C0ABB
:10106000F0EE6C0A05F0B8FF9FEDA41B51EC100BDD
:1010700053EC112B07F074FF53EC1D2B07F070FF9E
:1010800053EC192B08F078F953EC1B2B07F0BEFC3E
:1010900007F08AFCB06095ED020AB0EE6A1AF0EE35
:1010A000680A07F05CFC85ED020A94ED020AB0EED6
:1010B0006A1AF0EE680A07F052FC84ED020A96ED17
:1010C000020AB0EE6A1AF0EE680A07F048FC86EDF4
:1010D000020A87ED02AABDEC0E8BBDE8F0879FEDFA
:1010E00089EA92ED000A914620EE290A10EE100AD4
:1010F00008F02CFA41EC1B0B19EE100A08F026FA46
:1011000041EC100B05F0A8FFB0EE40DAF0EE60DA2B
:10111000D8F8000008F01AFA53EC1D2B07F032FD46
:1011200053EC1B2B08F028F907F03EFC01EE900A67
:101130009FED751ADFED750AB0EE490A07F00FFC56
:10114000B5EEC00AB0EE409AF1EE10FA16D099ED65
:10115000000AF0EE610A40EE690A60EE880A80EE4D
:10116000A11AF0EE610A40EE290A20EE880AC0EECC
:10117000210A85ED021AC4ED020A03E085ED028A18
:1011800084ED028A9FED620A29EE000A10EE100A31
:1011900008F0DCF941EC1D0B19EE100A08F0D6F945
:1011A00041EC100B9FED5B1B05F0EEF89FED5B1B18
:1011B00051EC100B53EC112B07F0D2FE41EC1B0B42
:1011C00019EE100A08F0C2F941EC100BB0EE4C1AFF
:1011D000F0EE6C1A05F0D8F89FED521B51EC100B95
:1011E00053EC112B07F0BCFE53EC1B2B07F00EFC4D
:1011F00053EC1D2B08F0C0F89FED4C1B53EC112B4A
:1012000007F004FC07F0D0FB00EE100ADFED490AFE
:1012100070EE600A9FED480A484BB0EE6A1A00EE85
:101220008E0AF0EE680ABDEEC00A83ED000A95ED65
:10123000020A07F094FB85ED020A94ED020AB0EE73
:101240006A1AF0EE680A07F08AFB84ED020A86ED5E
:1012500002AA87ED02AA40F698024FF44871186876
:1012600007F08DFB186036E792ED000AF0EE480AB1
:10127000B0EE6A1A29EE000A40EE690A00EE298AE9
:10128000C5ED020AF0EE601A84ED028AF0EE680AFB
:10129000B0EE610A5AE692ED000AD8ED000A30EE8F
:1012A000200A60EE090AB0EE480A00EEE90A00EEF4
:1012B000A98A85ED020A84ED020A86ED028A87ED8D
:1012C000028A3DE0D900002050010020780700206C
:1012D0008C07002000000000000008400000000013
:1012E0004C01002050070020640700204407002024
:1012F00054010020000000000000E0BF00000000DA
:101300000000E03FD7231F440AD7A33E48E1FABEBE
:10131000E5D0E23F000000000000004000000000B7
:10132000D34DF43F000000809318E4BF000000E0BC
:101330007A14FC3FD7A3E03F0080BB44200100208B
:10134000B0EE6A1AF0EE680A07F009FB85ED020AB2
:1013500094ED020AB0EE6A1AF0EE680A07F0FFFA9E
:1013600084ED020A96ED020AB0EE6A1AF0EE680AFF
:1013700007F0F5FA86ED020A97ED020AB0EE6A1A56
:10138000F0EE680A07F0EBFA87ED020AA3E600F038
:1013900001B80000F0B587B014216846FFF79EF849
:1013A00016480024016841F001010160016801F064
:1013B00001010591016841F00401016000681026F7
:1013C00000F004000096059003250D4FCDE901546F
:1013D0006946384600F08EFF2020CDE900056946B9
:1013E0000294384600F086FF0096CDE90154694624
:1013F000044800F07FFF07B0F0BD00003038024025
:10140000000002400008024072B6FEE770B53A4A9A
:101410003A4C05231188618108462380258832F8DB
:1014200015608E4200D331466D1CADB225807B2DF8
:10143000F4D36181A0812380268832F8165085423A
:1014400000D82846761CB5B225807B2DF4D3A08128
:101450000844400820822380238832F813508542B4
:1014600014D902EB43014E8886420FD98E888642FA
:101470000CD9CE88864209D20E89864206D24D8981
:10148000854203D299B2891CA18004E05B1C99B209
:1014900021807629E0D3762161808BB232F8131057
:1014A000814214D202EB43014D8885420FD28D88D0
:1014B00085420CD2CD88854209D90D89854206D94D
:1014C0004989814203D998B2801CE08004E05B1E08
:1014D00099B261800529E0D8E188A08808444008D5
:1014E000E0812189401A06F0E5FB5A2801D92089BC
:1014F000E081E089208170BD3802002000000020DA
:1015000070B530EEC01A344C344904F1800584EDD6
:101510001E1AD5ED001A71EE811A11EE900AC5ED72
:10152000001A884202DDDFED2E1A06E011EE900A65
:101530002C49884203D9DFED2C1AC5ED001A264943
:1015400030EEC00A8031294891ED012ADFED281ADA
:10155000007830EE420A022826D0012824D0D4EDAB
:101560000F0AD4ED112A80EEA12A62EE010A82EE62
:10157000A12AD5ED002A42EE220AD4ED102A00BF9E
:1015800082EEA12A1B4842EE000AC4ED1F0A85ED37
:10159000011A90ED000ABDEEC00A10EE100A04F028
:1015A00017FD012811D014E0D4ED120AD4ED142A4D
:1015B00080EEA12A62EE010A82EEA12AD5ED002A70
:1015C00042EE220AD4ED132ADAE79FED0B0A85EDED
:1015D000000A94ED1F0A70BD7401002000007A44D7
:1015E00000007A4400007AC400007AC4D9000020C8
:1015F0000000C84214000020000000001FB569462A
:10160000009007200290012001900B4800F0A2FBFF
:10161000094800F095FD1E21074800F03BFD0648F3
:1016200000F040FC800503D5034800F03DFC84B287
:1016300004B0204610BD000038030020F0B4634819
:101640006349037863480E780578634804789FED12
:10165000630A634ADFED632ADFED631A634F9FED90
:10166000642A6449D7ED000A6348B1EE601A53B1A9
:10167000012B08D0092C64D2DFE804F06341444711
:101680004C4F54576000092C24D2DFE804F02305A6
:10169000080B0E13181B1E00C1ED000A0CE0C1ED73
:1016A000000A04E081ED000A01E081ED001A82EDFC
:1016B000001A4EE081ED001A82ED000A49E081ED4A
:1016C000001A04E081ED000A01E0C1ED000AC2ED5C
:1016D000000A3EE081ED000A82ED000A012E02D0F0
:1016E000012D05D008E080EEA20A20EE020A03E0F8
:1016F00080EEA20A20EE210A80ED000A29E0C1ED69
:10170000000A0CE0C1ED000A01E081ED000AC0ED25
:10171000001A0EE081ED001AF9E781ED001A80ED64
:10172000000A06E081ED001A01E081ED000A80ED7B
:10173000002A012E08D0012D09D00AE0C1ED000ACF
:10174000F5E781ED000AEAE780ED002A01E0C0ED4F
:10175000001A022B06D0032B11D0052B0FD0042B1F
:101760000DD01FE090ED000AF0EE000A20EE200AF6
:10177000F2EE020A80EE201A80ED001A12E091EDDE
:10178000000AB5EEC00AF1EE10FA90ED000A03D29D
:10179000B1EE400A80ED000A20EE200AC0EE220AD7
:1017A000C0ED000AD1ED000A9FED141A80EE810A07
:1017B00081ED000AD2ED001AC1EE810AC2ED000AE5
:1017C00090ED001AF0BCFFF777BB0000D9000020B5
:1017D00058010020590100201A01002000000000DB
:1017E0003C0100200000FA43DB0FC9BFDC000020F1
:1017F000DB0FC93F380100204001002000007A447F
:101800004D494E4A4E4891ED031A82ED001A008868
:10181000403800EE100A4B48F8EEC00AC1ED130A3A
:1018200000789FED490A9FED492A0B460128D3ED28
:10183000141A22D005282BD0454B70EEE11AD3EDB7
:10184000002A444B60EEA22A22EE800AD3ED002A41
:10185000C1ED140A61EEA21A01EEC20ADFED3E0AE2
:101860003E4900B3012823D0022828D0032829D0DC
:10187000052837D004283FD051E0394B70EEE11AEB
:10188000D3ED002A374B60EEA22A22EE800ADDE774
:10189000354B70EEE11AD3ED002A344B60EEA22AEC
:1018A00022EE800AD2E7F0EE411A20EE210A32E061
:1018B000F0EE410A20EE200ADFED2D0A2BE0DFEDED
:1018C0002D0A28E0F0EE410AF5EEC00AF1EE10FA1A
:1018D00001D2B1EE400AF0EE410A20EE200ADFED1F
:1018E000260A18E0F0EE411AF5EEC01AF1EE10FAF1
:1018F000D9D2B1EE400AD6E7F0EE410AF5EEC00AC1
:10190000F1EE10FA01D2B1EE400AF0EE410A20EEFB
:10191000200ADFED1A0AC0EE201AC1ED001ADFED31
:10192000180A184881EE200A82ED000A91ED001A8B
:10193000D0ED000AFFF7C0BA4C00002038010020AB
:101940000E000020D9000020CDCCCCBDCDCCCC3DAC
:101950000001002004010020005043474001002006
:10196000F0000020F4000020E0000020E40000204F
:101970000010A4460000E14300DC824700089D46B9
:1019800000007A443C0100202DE9F0412DED028B4E
:101990009FED678AFFF7FCF9664E674DDFF89C8183
:1019A000D0B16420FFF76CF986ED008A85ED008ADE
:1019B00088ED008AD6ED000A9FED611A80EE810A5B
:1019C00086ED000A95ED001AD8ED000ABDEC028BF9
:1019D000BDE8F041FFF770BA5A4C5B485B4F94ED9D
:1019E000040A86ED000A0068C0F1640000EE100AE7
:1019F000B8EEC00A84ED150A38789FED551ADFED70
:101A0000550A01282CD0052837D05348D0ED001AAC
:101A1000524860EE211A21EE818A94ED161A30EEBA
:101A2000411A00BFD0ED001A21EE211A01EE608AA2
:101A300084ED160A0020FFF723F93878A0B30128B7
:101A40003AD003283FD005284DD004285BD0022887
:101A5000B0D19FED430AC8EE000AC5ED000AA9E720
:101A60004048D0ED001A404860EE211A21EE818AEC
:101A700094ED161A30EE411AD4E73C489FED3C1A1B
:101A8000D0ED000A3B4860EE200A20EE818AD4EDBA
:101A9000160A90ED001A70EE600A60EE810A9FED62
:101AA000361A00EEC18AC3E7FFE794ED040ADFEDC2
:101AB000330A28EE000A35E094ED040ADFED300A1F
:101AC00028EE000A2EE096ED000AB5EEC00AF1EE0F
:101AD00010FA01D2B1EE488A94ED040ADFED290A2A
:101AE00028EE000A1EE096ED000AB5EEC00AF1EEFF
:101AF00010FA01D2B1EE488A94ED040ADFED220A11
:101B000028EE000A0EE096ED000AB5EEC00AF1EEEE
:101B100010FA01D2B1EE488A94ED040ADFED1B0AF7
:101B200028EE000A80EE201A85ED001A42E7000038
:101B30000000000038010020400100203C0100208E
:101B400000007A444C00002028000020D90000202A
:101B50000AD7A3BDCDCC4C3D080100200C010020CC
:101B60000000E143F8000020FC000020E800002015
:101B7000CDCCCCBDEC000020CDCCCC3D00504347BB
:101B800000C0284600C82F4700C0DA4600089D461E
:101B900010B502202DED048B03F076FE3C4C206046
:101BA000032003F071FE6060042003F06DFEA0606E
:101BB000052003F069FE3749E0600978062919D24B
:101BC000DFE801F04703575747572168494200EEC5
:101BD000101A6168F8EEC09A494200EE101AA16826
:101BE000B8EEC09A494200EE101A4EE000EE100A1C
:101BF000B8EEC08A9FED280A284829EE801AD0ED59
:101C0000000A274861EE201A90ED001A254881EE5F
:101C1000812A69EE001A61EEA01A80ED002A81EE99
:101C2000812A68EE801A204828EE000A61EEA01A88
:101C300020EE200AC0EE010A80ED002A1B4881EE4A
:101C4000812A80ED002A1A48C0ED000ABDEC048B01
:101C500010BD94ED000AA168F8EEC09A94ED010A57
:101C600049424042B8EEC09A00EE101AF8EEC08A1F
:101C7000BCE794ED000A6168F8EEC09A494200EEB4
:101C8000101AB8EEC09A94ED020AF8EEC08AADE7D9
:101C90001C070020D90000200000C8424801002095
:101CA000440100205007002064070020780700202E
:101CB0008C0700202DE9F04100250E4607462C46F2
:101CC00008E03846FFF79AFC0544052005F04CFF74
:101CD000641CE4B2B442F4D3B5FBF6F080B2BDE8C4
:101CE000F081000010B50820FFF788FC07F0E8F845
:101CF0009FED0F1B53EC112B07F032F99FED0E1BDC
:101D000053EC112B07F02CF99FED0D1B53EC112B0D
:101D100007F026F99FED0C1B53EC112B07F020F96F
:101D200007F088F800EE100AB8EEC00A10BD0000F7
:101D30006666666666660A4000000000000026408F
:101D40007B14AE47E17AF03F000000000000303F16
:101D50007047000078B50024009490F83C20012AD8
:101D600019D0012280F83C200A6807230568092A57
:101D700013D9EE680A3A02EB420293409E43EE60AA
:101D80000B788A680A3B03EB43039A400368DD68DB
:101D90002A43DA6010E0022078BD2E6902EB42028D
:101DA00093409E432E610B788A6803EB43039A406D
:101DB00003681D692A431A614A681F23072A13D240
:101DC00005686E6B521E02EB820293409E436E6367
:101DD0000B790A885B1E92B203EB83039A40036877
:101DE0005D6B2A435A6327E005680D2A12D22E6BD9
:101DF000D21F02EB820293409E432E630B790A8826
:101E0000DB1F92B203EB83039A4003681D6B2A43E6
:101E10001A6311E0EE6A0D3A02EB820293409E4390
:101E2000EE620B790A880D3B92B203EB83039A4072
:101E30000368DD6A2A43DA62164B0568144A9D423C
:101E400006D10D68122D03D1556845F48005556003
:101E500005689D4218D10B68102B01D0112B13D1AE
:101E6000536843F400035360096810290CD10A49F0
:101E70000A4A0968B1FBF2F101EB8101490000E077
:101E8000491E00910029FBD180F83C40002078BD1C
:101E900000230140002001404400002040420F0088
:101EA00070477047006C70470068C06C704770B531
:101EB000044600680668456816F0020F05F0200128
:101EC0002AD049B3216CC90603D4216C41F40071B6
:101ED0002164816811F0405F17D1217EA9B9C16AE0
:101EE00011F4700F02D0816849050ED4416821F0C9
:101EF00020014160206C20F480702064206CC004BC
:101F000003D4206C40F0010020642046FFF7C8FF96
:101F100021686FF01200086016F0040F05F08001D0
:101F200032D089B3206CC00603D4206C40F400503A
:101F300020642068816811F4401F1ED1816B11F468
:101F4000401F02D08168490517D44168490514D45F
:101F5000816811F0405F10D1217E71B9416821F094
:101F600080014160206C20F480502064206CC0050A
:101F700003D4206C40F0010020642046FFF7E8FE07
:101F800021686FF00C00086016F0010F05F04001A9
:101F90000FD071B120680068C0070AD0206C40F4EF
:101FA00080302064204600F043F821686FF0010083
:101FB000086016F0200F05F080610ED000290CD0CB
:101FC000606C40F00200606420686FF020050560DE
:101FD0002046FFF766FF2068056070BD70B50400FD
:101FE0004FF0000503D0206C002610B107E001205F
:101FF00070BD204600F01EF8666484F83C60206CDA
:10200000C00610D4206C20F4885040F002002064F8
:102010002046FEF75BFB6664206C20F0020040F077
:102020000100206400E0012584F83C60284670BD72
:102030007047000010B586B0044614216846FEF7CC
:102040004DFA1149206888421BD1104800210268CE
:1020500042F480720260006800F4807005900B48C2
:102060001438026842F002020260006800F00200C8
:10207000059003200090CDE901016946044800F075
:1020800039F906B010BD000000200140443802407C
:10209000000402402DE9F041044600680D468168C5
:1020A0004FF0000749050BD58068C00508D5206CA6
:1020B00040F02000206484F83C700120BDE8F081ED
:1020C00000F01AFA064613E0681C11D025B100F0A2
:1020D00013FA801BA8420BD920680068800707D438
:1020E000206C40F00400206484F83C700320E5E795
:1020F000206800688007E7D521686FF0120008604B
:10210000206C40F4007020642068816811F0405F0A
:1021100013D1217E89B9C16A11F4700F02D0806891
:1021200040050AD4206C20F480702064206CC00428
:1021300003D4206C40F0010020640020BEE70000C2
:1021400018B50021009190F83C20012A07D0012207
:1021500080F83C2002689368DB0702D011E002207F
:1021600018BD936843F0010393602E4A2E4B12680A
:10217000B2FBF3F202EB420200E0521E0092002A90
:10218000FBD102689368DB0742D0036C40F2016424
:10219000A34343F48073036453685B0505D5036C64
:1021A00023F4005343F480530364036CDB0404D52D
:1021B000436C23F00603436400E0416480F83C1064
:1021C0001A496FF02203136049680068CA0618496B
:1021D00006D0884224D1816811F0405F13D01FE0FF
:1021E0008842F8D0134A904203D1D1F80423D20692
:1021F000F1D0114A904213D1D1F8041301F01F011C
:102200001029E8D30CE0816841F08041816007E04B
:10221000016C41F010010164416C41F00101416425
:10222000002018BD4400002040420F000023014060
:102230000020014000210140002201402DE9F04131
:102240000446876D00F058F9064694F835000025DD
:10225000022806D08020606584F834500120BDE853
:10226000F0812068016821F0160101602068416951
:1022700021F080014161206C08B9A06C20B1206878
:10228000016821F0080101602068016821F0010166
:1022900001600CE000F030F9801B052807D92020F0
:1022A0006065032084F8350084F83450D7E720684F
:1022B0000068C007EED194F85C103F208840B860F9
:1022C000012084F8350084F834500020C7E790F8E6
:1022D0003510022903D08021416501207047052176
:1022E00080F835100068016821F0010101600020CC
:1022F000704700002DE9F84FDFF8BCA1002201254E
:1023000003264FF00F090AF1040BAAF1040E00BFD7
:102310000B6805FA02F42340A34270D10F7907F04D
:102320000307012F01D0022F16D187684FEA420818
:1023300006FA08FC27EA0C07D1F80CC00CFA08FCD6
:102340004CEA070CC0F808C04768A7430C79C4F3EF
:10235000001494403C4344600C79E443A4070AD041
:10236000C4684FEA420C06FA0CF7BC438F6807FAC0
:102370000CF72743C7600C7904F00304022C12D138
:10238000D40800EB840CDCF820405707FF0E09FA54
:1023900007F824EA0804D1F8108008FA07F848EA98
:1023A0000408CCF8208004684FEA420C06FA0CF7C7
:1023B000BC430F7907F0030707FA0CF727430760C0
:1023C0004C6814F4403F70D03C4C276847F4804779
:1023D0002760246822F0030704F480440094384CFA
:1023E00007EB040CDCF8084897074FEA177809FA5E
:1023F00008F7BC43334FB84202D1002724E054E031
:10240000314FB84201D101271EE0304FB84201D10F
:10241000022719E02E4FB84201D1032714E02D4FB7
:10242000B84201D104270FE02B4FB84201D1052754
:102430000AE02A4FB84201D1062705E0284FB842EA
:1024400001D1072700E0082707FA08F72743CCF84F
:102450000878DAF800405746D1F804C09C435FEA98
:10246000CC2C00D51C433C60DBF800405F46D1F823
:1024700004C09C435FEA8C2C00D51C433C60DEF812
:1024800000407746D1F804C09C435FEA8C3C00D5FD
:102490001C433C60084F083F3C68D1F804C09C4393
:1024A0005FEACC3C00D51C433C60521C102AFFF470
:1024B0002FAFBDE8F88F0000083C014044380240CF
:1024C00000300140000002400004024000080240C9
:1024D000000C0240001002400014024000180240AC
:1024E000001C02400069084000D0012070470AB17A
:1024F000816170470904FBE701488068704700006C
:1025000038000020024881680278114481607047D9
:10251000380000200B4810B5016841F400710160DB
:10252000016841F480610160016841F480710160DB
:10253000032000F06FF8032000F006F800F024F804
:10254000002010BD003C024070B50D4D04464FF414
:102550007A712878B1FBF0F00A490968B1FBF0F014
:1025600000F00CFB48B9102C07D200222146501E67
:1025700000F030F800206C6070BD012070BD0000DC
:1025800038000020440000200A4808B5016841F4E2
:1025900080410160006800F4804000900548001F01
:1025A000016841F080510160006800F080500090A7
:1025B00008BD000044380240002809DB00F01F027B
:1025C000012191404009800000F1E020C0F8001195
:1025D00070470000F0B40E4B1B680C46C3F3022397
:1025E000C3F10705042D00D90425191D072901D2BF
:1025F000002300E0DB1E012606FA05F1491E2140FA
:1026000099409E40761E16403143F0BC03F0AABEAE
:102610000CED00E0064900F0070208684FF6FF03E2
:10262000184040EA0220034A104308607047000047
:102630000CED00E00000FA052DE9F0470E4605001C
:1026400065D0DFF81481D8F80000F7B200F0070079
:10265000B04207D288F80070D8F8000000F00700F8
:10266000B04254D128683D4C810712D5400703D5AC
:10267000206840F4E05020602878000703D52068E7
:1026800040F4604020602068A96820F0F000084312
:1026900020602878C0072DD03049686808390128A3
:1026A00012D0022813D0032811D009688907002905
:1026B0002DDA216821F0030101432160FFF71CFF9F
:1026C000814641F2883A0EE009688903EFE709681C
:1026D0008901ECE7FFF710FFA0EB0901514502D992
:1026E0000320BDE8F0872068696800F00C00B0EBBB
:1026F000810FEFD1D8F80010404601F00701B14238
:1027000007D90770006800F00700B04201D001202F
:10271000E7E72878400705D52068E96820F4E0500D
:10272000084320602878000706D52068296920F42E
:10273000604040EAC100206000F038F82168084A93
:10274000C1F30311515CC84006490860064800689F
:10275000FFF7FAFE0020C4E7003C024008380240C0
:1027600032970008440000203C000020044805493E
:1027700000680968044AC1F38221515CC84070476F
:1027800044000020083802404297000804480549E8
:1027900000680968044AC1F34231515CC84070477F
:1027A000440000200838024042970008154810B540
:1027B000006810F00C02144813D01449042A0FD0FA
:1027C000082A0ED10F4C241F2268236802F03F0212
:1027D0005B0207D52068C0F38810A0FB010106E06A
:1027E000084610BD2168C1F38811A1FB0001002338
:1027F000FDF75EFD2168C1F30141491C4900B0FBB2
:10280000F1F010BD083802400024F40040787D014A
:102810002DE9F84F04006ED02078DFF84C93C00704
:10282000A9F104054AD009F104000168C1F381014E
:10283000012908D00068C0F3810002280AD1D9F824
:102840000000400206D52868800337D5606800285C
:10285000E1D033E06068B0F5803F10D0B0F5A02F34
:10286000286810D020F480302860286820F4802068
:1028700028606068A8B1FFF73FFE06460DE02868B3
:1028800040F48030F4E740F480202860F7E700BF90
:10289000FFF732FE801B642873D828688003F7D5C1
:1028A0000CE0FFF729FE064605E000BFFFF724FE17
:1028B000801B6428F0D828688003F7D42078DFF8DC
:1028C000AC8280074FF0000A3ED5A748001D016882
:1028D00011F00C0F08D00068C0F3810002280BD162
:1028E000D9F80000400207D42868800716D5E068B0
:1028F000012800D112E033E1E068B8B10120C8F846
:102900000000FFF7F9FD064605E000BFFFF7F4FD04
:10291000801B0228C0D828688007F7D5286821695D
:1029200020F0F80040EAC10028600DE0C8F800A0DF
:10293000FFF7E2FD064604E0FFF7DEFD801B0228FC
:102940001FD828688007F7D42078000722D5864F43
:1029500087486169703771B101210160FFF7CCFDD3
:10296000064604E0FFF7C8FD801B022809D8386836
:102970008007F7D50EE0C0F800A0FFF7BDFD0646C2
:1029800005E082E0FFF7B8FD801B02287DD838689B
:102990008007F7D42078400768D5DFF8CCB100274E
:1029A0000BF13C0BDBF80000C0000BD4DBF800108F
:1029B00041F08051CBF80010DBF80000012700F057
:1029C000805000906B4E3068C00510D4306840F4E1
:1029D00080703060FFF790FD009005E0FFF78CFD00
:1029E0000099401A022850D83068C005F6D55E4ECE
:1029F000A0686C3601280FD00528306810D020F070
:102A000001003060306820F004003060A068B8B188
:102A1000FFF772FD00900FE0306840F00100F4E72E
:102A200040F004003060F7E7FFF766FD0099411AB7
:102A300041F28830814266D830688007F4D50EE0D4
:102A4000FFF75AFD009007E0FFF756FD0099411A85
:102A500041F28830814256D830688007F4D42FB1D3
:102A6000DBF8001021F08051CBF80010A069C8B34A
:102A70003D49091D0968C1F3810102294AD0022894
:102A8000504607D0C8F8600000E03CE0FFF734FD96
:102A900004463BE04746C8F86000FFF72DFD0646B8
:102AA00005E000BFFFF728FD801B02282BD828680F
:102AB0008001F7D4D4E907010843A16A2E4A4908E6
:102AC00002EB0141626A41EA8211084394F82C103A
:102AD00040EA0161C9F8001001203866FFF70CFDDB
:102AE000044606E03EE000BFFFF706FD001B02289B
:102AF00009D828688001F7D534E000BFFFF7FCFC57
:102B0000001B022802D90320BDE8F88F2868800145
:102B1000F4D427E00128F7D0D9F80000E26900F4E6
:102B2000800191421CD1226A00F03F01914217D1ED
:102B300047F6C071626A0140B1EB821F10D1A26AF0
:102B40004FF0FF3300F4403103EB5202B1EB024F80
:102B500006D194F82C1000F07060B0EB016F01D03A
:102B60000120D1E70020CFE70438024000004742AF
:102B7000800E4742007000400000FFFF10B5401E6D
:102B8000B0F1807F01D3012010BD4FF0E0246061DF
:102B90000F21601703F0E6FB0020A06107202061F1
:102BA000002010BD7047704710B590F83C20012AF6
:102BB00022D0012280F83C20CA688C6822F440723E
:102BC00022434C6822F4806222430C6822F40062A3
:102BD00022430C6922F4805222434C6922F40052B1
:102BE0002243C969002322F480420A4301684A64EF
:102BF00080F83C30002010BD022010BD70B590F868
:102C00003C20012A32D0012480F83C40022280F886
:102C10003D2003685A689D6822F070060A683243B6
:102C20005A60134B02689A4214D0B2F1804F11D00F
:102C3000104B9A420ED0104B9A420BD00F4B9A4237
:102C400008D00F4B9A4205D00E4B9A4202D00E4B41
:102C50009A4204D1496825F080031943916080F8B5
:102C60003D40002180F83C10084670BD022070BD38
:102C7000000001400004004000080040000C00403B
:102C800000040140004001400018004010B504005D
:102C900003D094F83D0010B107E0012010BD0020E2
:102CA00084F83C00204600F01FF8022084F83D0024
:102CB000211D206803F022F8012084F8460084F8E2
:102CC0003E0084F83F0084F8400084F8410084F816
:102CD000420084F8430084F8440084F8450084F8F6
:102CE0003D00002010BD000008B5284A01682848B2
:102CF000914207D1016841F001010160006800F0D4
:102D0000010009E0234A914208D1016841F0020123
:102D10000160006800F00200009008BD1E4A914268
:102D200007D1016841F480310160006800F480300F
:102D3000F2E71A4A914207D1016841F4003101607B
:102D4000006800F40030E7E7154A914207D10168B6
:102D500041F480210160006800F48020DCE7114824
:102D60008142DAD10A48001F016841F04001016048
:102D70000068012200F04000009002212B20FFF7A4
:102D800029FCBDE808402B20FFF716BC00000140DD
:102D9000443802400004014000400140004401402A
:102DA000004801400018004090F83D10012901D072
:102DB00001207047022180F83D100168CA6842F086
:102DC0000102CA6000681149884214D0B0F1804FF6
:102DD00011D00F4988420ED00E4988420BD00E49BF
:102DE000884208D00D49884205D00D49884202D05A
:102DF0000C49884204D1816801F00701062903D0FB
:102E0000016841F0010101600020704700000140AD
:102E10000004004000080040000C00400004014095
:102E2000004001400018004070B5044690F83C0096
:102E30000025012817D0012684F83C60022084F880
:102E40003D002068826822F0770222F47F4282608F
:102E50000868502838D00DDC20284FD005DC90B30E
:102E6000102811D14AE0022070BD302846D04028F9
:102E70000AD13BE060282FD070280DD0B0F5805FDC
:102E800003D0B0F5005F12D0012584F83D6000202A
:102E900084F83C00284670BDCB68D1E90121206848
:102EA00002F09DFF2068816841F0770109E0CB685E
:102EB000D1E90121206802F092FF2068816841F485
:102EC00080418160E1E719E0CA684968206803F041
:102ED0005BF85021206806E0CA684968206803F062
:102EE00064F86021206802F084FFCEE7CA68496870
:102EF000206803F049F840212068F4E72268014681
:102F00001046F0E72DE9F0410D46040003D094F897
:102F10003D0018B108E00120BDE8F081002084F8F0
:102F20003C00204600F040F8022084F83D00206874
:102F3000816844F2070291438160211D206802F0FC
:102F4000DDFE226890689169166A2B68AF690343B9
:102F500040F20330814341EA0721A868EF69084342
:102F60004FF6FC418843E96840EA0720014328699D
:102F70002F6A000140EA0730084369686D6926F04E
:102F8000AA0646EA0515294393602268906154F821
:102F9000460B0162012004F81F09E0752076E076F7
:102FA0002077A0750020B7E7F0B587B0044614215C
:102FB0006846FDF793FA45492368444810391226BC
:102FC00001240325424A434FB3F1804F17D0DFF865
:102FD00008E14FF0020C734540D1026842F0020252
:102FE0000260006800F002000590086840F00200EE
:102FF0000860086800F002000590302043E0036894
:1030000043F001030360006800F0010005900868C8
:1030100040F001000860086800F0010005900868B1
:1030200040F0020008600868CDE9024500F00200A7
:1030300005904FF40040CDE900066946049410461F
:10304000FFF758F90820CDE90006CDE902456946A9
:1030500004943846FFF74EF907B0F0BDDFF87CE086
:10306000734518D1026842F004020260006800F063
:1030700004000590086840F002000860086800F04D
:1030800002000590C020CDE9000602AA694682E848
:1030900030103846DEE7124FBB42DDD1036843F003
:1030A00008030360006800F008000590086840F01D
:1030B000010008600868CDE9005600F00100CDE984
:1030C00004C069461046CDE90245C3E740380240D6
:1030D00000000240000402400004004000080040DC
:1030E000000C004070B590F83E60044690F83F50E8
:1030F00090F8423090F84320022021B104290ED0EC
:10310000012E1BD114E0012E18D1012B16D184F809
:103110003E0084F8420001220021206820E0012DB9
:103120000CD1012A0AD184F83F0084F8430014E04E
:10313000012D03D1012B01D1012A01D0012070BD45
:1031400084F83E0084F83F0084F8420084F843008D
:1031500001220021206802F035FE012204212068AE
:1031600002F030FE2068016841F00101016000209A
:1031700070BD704770B50446006801694FF00005E6
:10318000C943890715D4C168C943890711D4E91E09
:10319000016101202077206880698007204602D0E5
:1031A000FFF7E7FF04E000F021F9204600F0B3F953
:1031B000257720680169C943490717D4C168C94305
:1031C000490713D46FF004010161022020772068C1
:1031D000806910F4407F204602D0FFF7CAFF04E068
:1031E00000F004F9204600F096F92577206801697F
:1031F000C943090716D4C168C943090712D46FF03F
:1032000008010161042020772068C06980072046FA
:1032100002D0FFF7AEFF04E000F0E8F8204600F02F
:103220007AF9257720680169C943C90617D4C168AE
:10323000C943C90613D46FF010010161082020773B
:103240002068C06910F4407F204602D0FFF791FF4C
:1032500004E000F0CBF8204600F05DF92577206807
:103260000169C943C90708D1C168C943C90704D165
:10327000891E0161204600F0B3F920680169C94345
:10328000090609D4C168C943090605D46FF0800155
:1032900001612046FFF786FC20680169C9434906A1
:1032A00009D4C168C943490605D46FF040010161E2
:1032B000204600F0EBFA20680169C94389060BD467
:1032C000C168C943890607D46FF020010161204617
:1032D000BDE87040FFF767BC70BD0000F0B587B077
:1032E000044614216846FDF7F9F8374F2368002695
:1032F00036490225012403223548BB421BD10B6805
:1033000043F010030B600968CDE9024201F010019F
:1033100005914FF42061CDE90015049469460746F4
:10332000FEF7E8FF4FF4C0408DE86100CDE903648B
:103330006946384611E0274F7E15BB4211D1086817
:1033400040F0040008600868CDE9024200F0040083
:10335000CDE904206946204833E0FEF7CBFF07B0F3
:10336000F0BD1E4FBB4209D10B6843F010030B6048
:10337000096801F01001059160210CE0184F19480F
:10338000BB420FD10B6843F002030B60096801F0E8
:10339000020105918115CDE90015CDE902420492A3
:1033A0006946DAE7104FBB42D9D10B6843F00203FC
:1033B0000B600968CDE9024201F00201CDE9042168
:1033C0006946CDE90065C8E7000001403038024099
:1033D000001002400004014000080240004001408B
:1033E000004401400004024000480140704770B5AD
:1033F000044690F83C0000260D4601280FD001201D
:1034000084F83C006AB1042A1DD0082A2FD00C2A67
:103410003FD00126002084F83C00304670BD0220D9
:1034200070BD206802F0EEFC2068816941F008015F
:1034300081612068816921F00401816120688169CE
:103440002A69114311E0206802F00CFD20688169AF
:1034500041F4006181612068816921F480618161AA
:10346000206881692A6941EA02218161D2E72068E6
:1034700002F02EFD2068C16941F00801C161206899
:10348000C16921F00401C1612068C1692A69114341
:1034900011E0206802F050FD2068C16941F400612C
:1034A000C1612068C16921F48061C1612068C1697E
:1034B0002A6941EA0221C161ACE710B5040003D0DA
:1034C00094F83D0010B107E0012010BD002084F801
:1034D0003C00204600F01EF8022084F83D00211D2B
:1034E000206802F00BFC012084F8460084F83E00BE
:1034F00084F83F0084F8400084F8410084F84200DA
:1035000084F8430084F8440084F8450084F83D00C2
:10351000002010BD7047704710B50446022249B123
:1035200004290ED0082913D094F84100012816D0A0
:10353000012010BD94F83E000128F9D184F83E2006
:103540000FE094F83F000128F2D184F83F2008E012
:1035500094F840000128EBD184F8402001E084F881
:1035600041200122206802F02DFC16492068164AED
:10357000884201D0904203D1436C43F4004343643A
:103580002068884213D0B0F1804F10D00F49884294
:103590000DD00F4988420AD00E49884207D0904288
:1035A00005D00D49884202D00C49884204D1816877
:1035B00001F00701062903D0016841F00101016013
:1035C000002010BD00000140000401400004004044
:1035D00000080040000C004000400140001800407E
:1035E000F8B500689A49884271D19A4C40F6B831D2
:1035F000A068884201DA401CA060FEF7C9FA02F018
:1036000041FE0025012802D002281ED110E02079B9
:10361000401CC0B22071052804D0062805D014D95A
:10362000257112E0FDF7B3FE0FE0FDF7A9FB0CE0FA
:10363000207818B10020207010B106E00120FAE7D0
:103640004FF4E1618448FCF749FFA0782179884272
:1036500007D0401CA07001F0E3FCA078062800D938
:10366000A5702079052836D00020FDF709FB2079C8
:1036700008B3012822D0022823D0032824D004280C
:1036800026D0052827D06078401CC0B26070022880
:103690004AD000D96570714890ED000ABDEEC00AAD
:1036A00010EE100A02F094FCE8B300231A46194603
:1036B00018460095C6E0FDF7C1FFECE701F0CCFE2F
:1036C000E9E700F05BFEE6E700F0F8FEE3E7BBE0C9
:1036D00000F0DEFFDFE70420FDF790FF604C206084
:1036E0000E20FDF78BFF5F4E30600520FDF786FF53
:1036F0005D49086000EBC0013268236801EB0011EE
:1037000002EB8106C72101FB03611044184491FBC1
:10371000F0F0564C216056490860FEF735F902205A
:1037200004F006FAB7E707E0657002F06DF8FDF700
:103730006DFEFEF765F8AEE74E4CD4ED020A94ED4F
:10374000000A00F00BFD00EE100A4B4EB8EEC00A66
:1037500084ED010AD6ED020A96ED000A00F03CFD68
:1037600000EE100A454FB8EEC00A86ED010AD7ED0B
:10377000020A97ED000A00F06DFD00EE100A404BC2
:10378000B8EEC00A87ED010AD3ED020A93ED000AF4
:1037900000F09EFD00EE100A44F27400B8EEC00A7C
:1037A00083ED010A00F0F0FF3648007806284BD27E
:1037B000DFE800F003152B4B034B009593ED010A56
:1037C000BDEEC00A10EE103A97ED010ABDEEC00A38
:1037D00010EE102A96ED010AB1EE400A26E000959F
:1037E00093ED010ABDEEC00A10EE103A97ED010A02
:1037F000BDEEC00A10EE102A96ED010ABDEEC00A19
:1038000010EE101A94ED010A18E01F4800680090AD
:1038100093ED010ABDEEC00A10EE103A97ED010AD1
:10382000BDEEC00A10EE102A96ED010ABDEEC00AE8
:1038300010EE101A94ED010AB1EE400ABDEEC00A76
:1038400010EE100A02F022F9F8BD0095E0E7000042
:10385000001800404C0000200C080020140000203C
:10386000240000201C000020200000202C0000204C
:10387000280000205007002064070020780700205F
:103880008C070020D90000202001002070477047DD
:1038900070470000F8B5016804460868CA684B69BB
:1038A00010F00F0F4FF0000559D003F0010602F49D
:1038B0009077374365D0C10705D0D10503D5216C7A
:1038C00041F001012164410705D5D90703D0216CDE
:1038D00041F002012164810705D5D90703D0216C8D
:1038E00041F004012164010707D502F020013143B2
:1038F00003D0216C41F008012164216C00293AD0E9
:10390000800604D5900602D5204602F0A8FB206868
:103910004069216CC0F38010090700D460B32046D1
:1039200002F076FB20684069400621D520681430FB
:1039300050E8001F21F0400140E80012002AF5D1B4
:10394000A06BA8B16C490165A06BFEF7C0FC002814
:1039500011D0A06B016D01B0BDE8F04008478306AF
:103960000FD593060DD52046BDE8F84002F077BB91
:103970002046FFF78DFFF8BD2046FFF789FF25643D
:10398000F8BD266B2023012E79D1C60677D5D60641
:1039900075D50868486800904869400640D5A16B15
:1039A000086840680004000CEAD0A28D8242E7D982
:1039B000E085C869B0F5807F2DD020680C3050E8D4
:1039C000001F21F4807140E80012002AF5D1206820
:1039D000143050E8001F21F0010140E80012002AD5
:1039E000F5D12068143050E8001F21F0400140E874
:1039F0000012002AF5D184F83E30256320680C308F
:103A000050E8001F21F0100140E80012002AF5D113
:103A1000A06BFEF713FCA08DE18D401A81B229E066
:103A2000A08DE18D401A81B2E08D0028A8D0002938
:103A3000A6D020680C3050E8002F22F4907240E8A5
:103A40000026002EF5D12068143050E8002F22F017
:103A5000010240E80026002EF5D184F83E302563AF
:103A600020680C3050E8002F22F0100240E80023BC
:103A7000002BF5D12046FFF70AFFF8BDFFE705064A
:103A80002BD5150629D594F83D002128F5D1A0683D
:103A9000B0F5805F01D12069B0B1206A411C21627C
:103AA000216800784860E08C401E0004000CE0842F
:103AB000E3D12068C16821F08001C1602068C1683D
:103AC00041F04001C160D8E7206A0088C0F30800D7
:103AD0004860206A801C2062E5E74006CDD550068C
:103AE000CBD5CA68204622F04002CA6084F83D3037
:103AF00000F032FBC1E700000160000870B504006F
:103B000004D094F83D00002510B106E0012070BDFE
:103B100084F83C50204600F023F8242084F83D002F
:103B20002068C16821F40051C160204602F0F8FA13
:103B30002068016921F4904101612068416921F008
:103B40002A0141612068C16841F40051C1602564C7
:103B5000202084F83D0084F83E00002070BD000065
:103B6000F0B587B0044614216846FCF7B7FC474916
:103B7000454B22684548103902250124444E9A429B
:103B800033D1026842F480120260006800F48010B1
:103B90000590086840F004000860086800F0040020
:103BA0000590086840F0080008600868082700F0E1
:103BB0000800059088140090CDE90154CDE9034731
:103BC00069463448FEF796FB04200090CDE9015485
:103BD000CDE9034769463046FEF78CFB01221146CA
:103BE0003520FEF7F7FC352026E02B4F0723BA429D
:103BF00026D12648001D026842F0100202600068CB
:103C000000F010000590086840F0010008600868A6
:103C1000694600F0010005904FF4C0600090CDE9C6
:103C20000154CDE903431D48FEF764FB0122114610
:103C30002520FEF7CFFC2520FEF7BEFC07B0F0BD27
:103C4000174FBA42FAD1026842F4003202600068AB
:103C500000F400300590086840F00800086008682B
:103C6000694600F00800059060200090CDE90154FD
:103C7000CDE903433046FEF73DFB012211462620E5
:103C8000FEF7A8FC2620D7E700500040403802404D
:103C9000000C0240000802400010014000000240F9
:103CA0000044004090F83E30202B0ED159B152B163
:103CB00090F83C30012B08D0012380F83C300023E1
:103CC000036302F0B3BA012070470220704700007E
:103CD0002DE9F05FFF4901222DED048B00254FF007
:103CE000020B0068FC4C884270D104F1080104F119
:103CF000080009780078A1F14006F7B2F74BDFF829
:103D0000E0C3DFF8E083F84E4B2808D0492808D0FC
:103D10004A2806D036782EB1012E0BD021E0327021
:103D20000CE03570A0F14106072E3BD9082817DCBE
:103D3000197016E043280AD047280DD08CF800509F
:103D400088F80050412823D0452821D008E08CF87D
:103D5000005088F8002003E08CF8002088F800501C
:103D60001D70DFEDE20AE34EE14FDFF88C9396ED34
:103D7000000A9FEDE28AD84BDFF884A358285B78CD
:103D800012D0592813D07B281BD07D281FD012E0D9
:103D9000E668761CE660052E04D1DA4EE5603270E6
:103DA000D94E35701F70DCE730EE200A01E030EEAE
:103DB000600A86ED000A2078012803D0022808D086
:103DC000A1E02270F9545B1C63709CE0BFE084F8B2
:103DD00000B0F878502804D07878232803D0A37056
:103DE0002BE0CA48027085E06178081A05F051F8A6
:103DF00041EC110B9FEDC60B02F0C6FAA078B0EEB5
:103E0000409A80463844F0EE609A10F8010C303841
:103E100005F03FF853EC192B05F0A2F841EC190B13
:103E2000206905F093FB53EC192B04F0EFFD04F02F
:103E3000BBFD2061A8F10100A070A0780428D3D2B6
:103E4000B548007830B1052819D006282CD00428B0
:103E50003FD04FE07878303803284BD2DFE800F0CD
:103E600002070B0094ED040A86ED000A42E094ED8F
:103E7000040AAA483CE094ED040AA94838E078789E
:103E80003038032836D2DFE800F002070B0094ED4B
:103E9000040A8AED000A2DE094ED040AA14827E007
:103EA00094ED040AA04823E078783038032821D222
:103EB000DFE800F002070B0094ED040A89ED000A28
:103EC00018E094ED040A994812E094ED040A984829
:103ED0000EE07878303803280CD2DFE800F00206D4
:103EE000340094ED040A934802E094ED040A9248E9
:103EF00080ED000A25706570A57084ED048A32217A
:103F00007B48FCF7C9FA96ED000AB5EEC00AF1EE5F
:103F100010FA01D286ED008A99ED000AB5EEC00ACA
:103F2000F1EE10FA01D289ED008A9AED000AB5EEA1
:103F3000C00AF1EE10FA01D28AED008A6649012228
:103F400008317E48BBE094ED040A7D48D0E77D4906
:103F500088426FD1DFF880C15F480CF109069CF8F8
:103F600004109CF80580E77808EB480C764B093084
:103F700036780CEB030900780E4407F1010C08F1C8
:103F80000108F6B20CF0FF0C08F0FF0A6C2F4DD2BE
:103F9000DFE807F0363C434D5156595C61665C6181
:103FA000665C61665C61665C61665C61665C6166FC
:103FB0005C61665C61665C61665C61665C61665CF6
:103FC00061665C61665C61665C61665C61665C61E1
:103FD000665C61665C61665C61665C61665C6166CC
:103FE0005C61665C61665C61665C61665C61665CC6
:103FF00061665C61665C61665C616668686E72776A
:10400000A5280CD11870E270A5310EE05A2806D10F
:10401000587084F803B05A3107E06C2801D0E5707D
:104020003CE098700320E0706C31217137E0D8706B
:10403000042024E038E01871052020E026712EE0ED
:10404000587106201BE09871072018E000F07F01EE
:1040500089F8071001E089F8080084F803C0EDE74B
:1040600089F8090084F803C0267184F805A016E0D9
:1040700083F867006A2002E083F868006B20E07034
:10408000DCE783F86900E5706571884202D103F0CE
:10409000C1FC03E06A212C48FCF7FEF925710E49AA
:1040A0000122093129480AE0294988420DD10A48EC
:1040B0000949801D01220078E0712648891DBDEC68
:1040C000048BBDE8F05FFFF7EDBDBDEC048BBDE8F0
:1040D000F09F000000440040240200201A0100204C
:1040E00058010020590100205A0100200000C84258
:1040F00095310020DC000020580000200000000066
:104100005C00002018010020190100205B01002044
:10411000000000000000244050000020100100209A
:1041200014010020080100200C01002000010020E3
:10413000040100208001002084010020D806002016
:104140008801002000500040A007002050060020F9
:1041500000100140940600207047FEE7174830EE3B
:10416000C00A1749D0ED070A174A91ED001A70EE00
:10417000600A144960EE810A91ED001A41EE000ACE
:1041800090ED061A70EE810A10EE901AC0ED060A44
:10419000914203DDDFED0D0AC0ED060A10EE901A24
:1041A0000B4A914203D9DFED0B0AC0ED060A80ED00
:1041B000070ABDEEE00A10EE100A70474C0000201E
:1041C0001001002014010020004083460040834677
:1041D000004083C6004083C6174830EEC00A174926
:1041E000D0ED0A0A174A91ED001A70EE600A1449E0
:1041F00060EE810A91ED001A41EE000A90ED091A75
:1042000070EE810A10EE901AC0ED090A914203DDAA
:10421000DFED0D0AC0ED090A10EE901A0B4A91422B
:1042200003D9DFED0B0AC0ED090A80ED0A0ABDEEE5
:10423000E00A10EE100A70474C0000201001002028
:10424000140100200040834600408346004083C69E
:10425000004083C6174830EEC00A1749D0ED0D0A5A
:10426000174A91ED001A70EE600A144960EE810A57
:1042700091ED001A41EE000A90ED0C1A70EE810AE1
:1042800010EE901AC0ED0C0A914203DDDFED0D0A2D
:10429000C0ED0C0A10EE901A0B4A914203D9DFEDE3
:1042A0000B0AC0ED0C0A80ED0D0ABDEEE00A10EE1F
:1042B000100A70474C00002010010020140100205B
:1042C0000040834600408346004083C6004083C6CA
:1042D000174830EEC00A1749D0ED100A174A91ED81
:1042E000001A70EE600A144960EE810A91ED001A1E
:1042F00041EE000A90ED0F1A70EE810A10EE901A4E
:10430000C0ED0F0A914203DDDFED0D0AC0ED0F0A8B
:1043100010EE901A0B4A914203D9DFED0B0AC0ED63
:104320000F0A80ED100ABDEEE00A10EE100A704789
:104330004C000020100100201401002000408346A2
:1043400000408346004083C6004083C6094A68B1E6
:1043500009490B685B1C0B60834206D1D2F8B0029E
:10436000C043C2F8B0020020086070470120C2F8C4
:10437000B002704700004042700100202DE9F0417A
:10438000002002469FED401A404D414BB0EE410ADD
:1043900001464FF093764FF4906700BF03EBC004E3
:1043A000D4ED010A10EE904A2C44B44222D933F8DD
:1043B0003040A4F1010CBCF5E07F1BD810EE90CA90
:1043C000DFF8C8E0521CCEF1000ED2B2F44502DA9A
:1043D00030EE800A0AE010EE90CADFF8B8E0F4454B
:1043E00004DDDFED2D1A70EEE10AF1E7C82C01D2F1
:1043F000491CC9B2401C80B2B842CFD3284BDFED74
:10440000270A2848C3ED000A2AB1082906D99FEDDA
:10441000260A83ED000A80ED001A25E02349B5EE57
:10442000C00A83ED001AF1EE10FA09780FDD29B108
:10443000C3ED000A022904D0012905D0B7EE080A0D
:104440000EE09FED1B0A0BE0B6EE000A08E029B172
:10445000C3ED000A022910D0012911D0BFEE080ACD
:1044600080ED000A90ED001A124893ED000AD0ED9D
:10447000000ABDE8F041FCF71FBD9FED0F0AEFE712
:10448000BEEE000AECE7000000000000000090BD56
:104490000C080020000096430000B4439A99993E0E
:1044A00038010020400100209A9999BED9000020CF
:1044B000DB0F493F3C010020DB0F49BF2DE9F041F4
:1044C0005F4C4FF0000C2DED028B4FF6FF755D4BEE
:1044D000E06D614640F23F674FF4906E33F8312053
:1044E000561EBE4207D20CF1010CAA4203D203EBC6
:1044F000C10015464068491C7145EFDB00EE100A0B
:10450000514910EE100A84ED170A884205DDDFEDEF
:104510004F0A30EE600A84ED170AF0EE400A94ED7F
:10452000180A47484A4B30EEC00AC07810EE102AED
:10453000401CC1B200209A4204DC10EE102A454B08
:104540009A4203D9E1701E2903D805E0E1700A29D7
:1045500002D9E070C4ED180ADFED3F0A3F4F404E2C
:10456000BCF1080F0CDAE088282804D2401C80B285
:10457000E080282857D3C6ED000AC7ED000A52E0B4
:10458000E080384930689FED388A884202DC37493C
:1045900088421AD9B5F52F7F0ED294ED180A344906
:1045A00010EE100A884204DC10EE100A31498842ED
:1045B00002D920EE080A05E094ED180AFCF7A0FFE6
:1045C000B1EE400A87ED000A01E0C7ED000A2A4972
:1045D000E06DDFED2A0A884202DC2949884210D9C1
:1045E00000EE105AB8EE400AFCF7FEFBB1EE400AAE
:1045F00086ED000A94ED180A20EE080A87ED000AFD
:1046000007E000EE105AB8EE400AFCF7EDFB86ED2D
:10461000000A9FED1C1ADFED1C0A96ED000A04F05B
:104620009EF986ED000A194897ED001A96ED000AEA
:10463000D0ED000ABDEC028BBDE8F041FCF73CBCBC
:104640004C0000200C080020000034430000B4435C
:1046500000002041000020C10000000040010020B7
:10466000380100208FC2753D2E9020BC8FC275BDD1
:1046700000007042000070C2000016430000FA43C0
:10468000000016C39A99193F9A9919BF3C0100205E
:104690002DE9F047334D344900242DED028B20469F
:1046A000DFED2F8ADFF8C4C0C5ED008AD1E91926F5
:1046B000DFF8BC902F4B4FF4906A00BF03EBC007AC
:1046C0007F6807EB0C08C8450DD216B933F83020C7
:1046D000012633F8307002F16408474503D2641CA8
:1046E00000EE107AE4B2401C5045E7DBC1E9192620
:1046F00021489FED228A224E0078224F88B101285E
:104700000FD000EE902AB8EE400AF8EE600AFCF7EF
:10471000F1F987ED000AC5ED008A86ED008A7CB1CB
:1047200012E000EE902AB8EE400AF8EE600AFCF7BC
:10473000E1F986ED000AC5ED008A87ED008AEEE713
:1047400086ED008A87ED008A97ED001AD6ED000A03
:10475000B0EE680ABDEC028BBDE8F047FCF7ACBBDD
:104760009A99993E380100204C000020FFFF79BC47
:10477000FFFF01000C080020D9000020000000000D
:104780003C0100204001002000EE900A41421E4AF8
:10479000B8EEE01A00EE901A00B592ED010AF8EEBC
:1047A000E00A04F0DCF800EE900A82ED010A174AF4
:1047B000B8EEE01A00EE901A92ED010AF8EEE00A67
:1047C00004F0CDF800EE900A82ED010A104AB8EE2E
:1047D000E01A00EE901A92ED010AF8EEE00A04F0F9
:1047E000BEF800EE900A82ED010A0A4AB8EEE01A1D
:1047F00000EE901A92ED010AF8EEE00A04F0AFF82C
:1048000082ED010A00BD000050070020640700206F
:10481000780700208C0700207FB5002416480094FC
:10482000019402941349039401604FF48031C0E96C
:1048300001140461047680F820401049C0E90A148C
:104840000125C561C46080F830404561FDF7C6FBB5
:1048500008B1FCF7D9FD0820CDE9000569460294AE
:104860000548FDF777FA08B1FCF7CEFD0248FDF7E1
:1048700067FC7FBD00200140380300200100000FCD
:104880002DE9F04387B014216846FBF727FE424824
:104890000024016841F010010160016801F010017D
:1048A0000591016841F080010160016801F080011B
:1048B0000591016841F001010160016801F0010109
:1048C0000591016841F004010160016801F00401F3
:1048D0000591016841F002010160016801F00201E7
:1048E0000591016841F0080101600068DFF8AC90B3
:1048F00000F008004FF4A8550590002229464846CC
:10490000FDF7F5FD264F4FF4F046002231463846BC
:10491000FDF7EDFDDFF88C800022B9154046FDF76C
:10492000E6FD012211034046FDF7E1FD009501255A
:1049300001950295694648460395FDF7DBFCE803BF
:10494000CDE900040220029069464846FDF7D2FCFA
:104950000096CDE90154694638460394FDF7CAFC38
:104960004FF488500090CDE90154694640460394C5
:10497000FDF7C0FC08208DE8310069463846FDF798
:10498000B9FCCDE90054694648460294FDF7B2FCF3
:1049900007B0BDE8F083000030380240001002404C
:1049A000000C02400000024010B588B01C2168468F
:1049B000FBF794FD174816490024C0E9001444F29F
:1049C0009F11C0E90241802104618161FEF75EF917
:1049D00008B1FCF719FD0F48FEF76FFD08B1FCF7B1
:1049E00013FD6020CDE900040294002269460948C5
:1049F0000494FEF7FCFC08B1FCF706FD0021054815
:104A0000FEF78AFD0348FEF769FC08B010BD000000
:104A1000004401407805002010B588B01C2168468C
:104A2000FBF75CFD174816490024C0E9001444F266
:104A30009F11C0E90241802104618161FEF726F9DE
:104A400008B1FCF7E1FC0F48FEF737FD08B1FCF7B1
:104A5000DBFC6020CDE9000402940022694609488D
:104A60000494FEF7C4FC08B1FCF7CEFC0021054815
:104A7000FEF752FD0348FEF731FC08B010BD000000
:104A800000480140C00500201FB5002111480091D9
:104A9000019102910E4A0391026042F2CF02C0E9F5
:104AA00001216322C0E9032180218161FEF7EEF834
:104AB00008B1FCF7A9FC4FF4805000906946054806
:104AC000FEF7B2F9002801D0FCF79EFC1FBD0000E4
:104AD000001800400806002010B596B000240F947E
:104AE00010941194129413941C2168461494FBF7AB
:104AF000F5FC202107A8FBF7F1FC3C483A49C0E946
:104B0000001444F29F11C0E9024180210461C0E910
:104B10000541FEF7BBF808B1FCF776FC4FF4805076
:104B20000F900FA93148FEF77FF908B1FCF76CFC34
:104B30002E48FEF7C2FC08B1FCF766FC139413A9DB
:104B40002A481494FEF75AF808B1FCF75DFC60207F
:104B5000CDE900040294039404940594002269466C
:104B600022480694FEF743FC08B1FCF74DFC0422F2
:104B700069461E48FEF73BFC08B1FCF745FC0822DD
:104B800069461A48FEF733FC08B1FCF73DFC0C22DD
:104B900069461648FEF72BFC08B1FCF735FC079474
:104BA000089409944FF400500A94CDE90B4007A9EA
:104BB0000E480E94FDF7F8FF08B1FCF725FC002124
:104BC0000A48FEF7A9FC04210848FEF7A5FC0821C5
:104BD0000648FEF7A1FC0C210448FEF79DFC0348A3
:104BE000FEF77CFB16B010BD0000014080030020E2
:104BF00010B58CB024216846FBF770FC00241948DE
:104C000009944FF080410A94C0E900144FF6FF71F7
:104C1000C0E90241046184610320CDE90004012060
:104C2000CDE902040494CDE90540079469460D4896
:104C30000894FEF767F908B1FCF7E6FB099409A9A7
:104C400008480A94FDF7DAFF08B1FCF7DDFB002104
:104C50000448FEF747FA04210248FEF743FA0CB075
:104C600010BD0000C803002010B58CB02421684698
:104C7000FBF734FC00241948099417490A94C0E949
:104C800000144FF6FF71C0E9024104618461032002
:104C9000CDE900040120CDE902040494CDE90540EA
:104CA000079469460D480894FEF72CF908B1FCF703
:104CB000ABFB099409A909480A94FDF79FFF08B1C5
:104CC000FCF7A2FB00210548FEF70CFA042103487B
:104CD000FEF708FA0CB010BD0004004010040020DC
:104CE00010B58CB024216846FBF7F8FB0024194866
:104CF000099417490A94C0E900144FF6FF71C0E9FE
:104D00000241046184610320CDE900040120CDE962
:104D100002040494CDE90540079469460D480894BF
:104D2000FEF7F0F808B1FCF76FFB099409A90948F0
:104D30000A94FDF763FF08B1FCF766FB0021054804
:104D4000FEF7D0F904210348FEF7CCF90CB010BDF2
:104D5000000800405804002010B58CB0242168469B
:104D6000FBF7BCFB00241948099417490A94C0E9D1
:104D700000144FF6FF71C0E9024104618461032011
:104D8000CDE900040120CDE902040494CDE90540F9
:104D9000079469460D480894FEF7B4F808B1FCF78B
:104DA00033FB099409A909480A94FDF727FF08B1C4
:104DB000FCF72AFB00210548FEF794F9042103487B
:104DC000FEF790F90CB010BD000C0040A0040020CC
:104DD00010B596B000240F9410941194129413946B
:104DE0001C2108A81494FBF779FB20216846FBF7E7
:104DF00075FB2D482B490160A721C0E9011442F23F
:104E00000F71C0E903148021C0E90541FDF73EFFA1
:104E100008B1FCF7F9FA4FF480500F900FA922481F
:104E2000FEF702F808B1FCF7EFFA1F48FEF745FB62
:104E300008B1FCF7E9FA139413A91B481494FDF781
:104E4000DDFE08B1FCF7E0FA6020CDE908040A9421
:104E50000C940D940C2208A913480E94FEF7C7FA7F
:104E600008B1FCF7D1FA00944FF40050CDE90440AA
:104E700002940194039469460B480794FDF794FE4D
:104E800008B1FCF7C1FA0848FEF728FA0C210648D9
:104E9000FEF742FB034940F2DC504031086016B097
:104EA00010BD000000040140E804002010B58CB0E3
:104EB00000240794089409941C2168460A94FBF77F
:104EC0000DFB22482049C0E9001444F29F11C0E9BB
:104ED0000241802104618161FDF7D8FE08B1FCF731
:104EE00093FA4FF48050079007A91848FDF79CFFEC
:104EF00008B1FCF789FA1548FEF7DFFA08B1FCF7AC
:104F000083FA6020CDE900040294002269460F482C
:104F10000494FEF76CFA08B1FCF776FA04226946AD
:104F20000A48FEF764FA08B1FCF76EFA0021074858
:104F3000FEF7F2FA04210548FEF7EEFA0348FEF701
:104F4000CDF90CB010BD000000400140300500203C
:104F50000E4810B50C4901604FF4E1214160002179
:104F600081600C22C160C0E904128161C161FEF759
:104F7000C5FD08B1FCF748FABDE81040012204491C
:104F80000248FEF78FBE000000500040500600208F
:104F90002D0200200E4810B50C4901604FF4E1319C
:104FA0004160002181600C22C160C0E9041281616E
:104FB000C161FEF7A3FD08B1FCF726FABDE8104079
:104FC000012204490248FEF76DBE000000100140B6
:104FD000940600202A0200200E4810B50C490160FA
:104FE0004FF416514160002181600C22C160C0E97C
:104FF00004128161C161FEF781FD08B1FCF704FA7A
:10500000BDE81040012204490248FEF74BBE0000F3
:1050100000440040D80600202C020020FEE7FEE7F6
:1050200010B40021084B0A465FF0000003EBC004F7
:10503000401CC0B262548028F8D3491CC9B2082968
:10504000F2D310BC00F0ACB88C2D002010B57F2836
:1050500016D83F2914D80723A3EBD10301F0070189
:10506000C1F107040121A140064CDBB204EBC000F2
:10507000002AC25CC9B201D00A4300E08A43C2548C
:1050800010BD00008C2D00202DE9F04116460D4684
:1050900007460024FFF7DAFF324629463846FFF775
:1050A000D5FF2819C1B232463846FFF7CFFF641C3E
:1050B000E4B2082CF5D3BDE8F0810000374800B514
:1050C0000021C0F8B0120121C0F8B0120021AE20BA
:1050D00000F04AF90021D52000F046F900215020C7
:1050E00000F042F90021A82000F03EF900213F2005
:1050F00000F03AF90021D32000F036F900210846EB
:1051000000F032F90021402000F02EF900218D201E
:1051100000F02AF90021142000F026F900212020B7
:1051200000F022F90021022000F01EF90021A12048
:1051300000F01AF90021C02000F016F90021DA2051
:1051400000F012F90021122000F00EF90021812058
:1051500000F00AF90021EF2000F006F90021D92023
:1051600000F002F90021F12000F0FEF80021DB2020
:1051700000F0FAF80021302000F0F6F80021A42019
:1051800000F0F2F80021A62000F0EEF80021AF2098
:1051900000F0EAF85DF804EBFFF742BF00804142FF
:1051A00070B5114E002400BF04F1B000C0B2002160
:1051B00000F0DAF80021084600F0D6F800211020AF
:1051C00000F0D2F85FF0000506EBC5000121005D9C
:1051D00000F0CAF86D1CEDB2802DF5D3641CE4B26A
:1051E000082CE1D370BD00008C2D00202DE9FF4F6D
:1051F000203A1F460C46894602F0FF0A0025DDF8DA
:1052000034B032E00C2F09D01A4901EB0A104FF0EC
:105210000008465D300607D55A4609E016490AEBF4
:105220004A0001EB8000F2E7BBF1000F12D0002230
:1052300021460098FFF70AFF7006641C060EE4B2D0
:10524000A4EB0900B84207D100984C46401CC0B2FC
:10525000009008E00122EBE708F1010000F0FF08F0
:10526000B8F1080FD6D36D1CEDB2BD42CAD3BDE86C
:10527000FF8F0000BE9B00084A9700082DE9FF4FF2
:1052800081B00026DDF838A01D469346814634469D
:105290004FF001084FEA5A0727E0281B401EC1B211
:1052A0000A2002F00BFDBBFBF0F00A21B0FBF1F28B
:1052B00001FB120026B9691E8C4201DA48B10126B1
:1052C0003030C2B207FB0490C0B25346CDF8008024
:1052D00006E007FB0490C0B253462022CDF80080C0
:1052E0000299FFF783FF641CE4B2AC42D5D305B04A
:1052F000BDE8F08FF8B516460D460446012714E0C8
:105300007A2C02D900241035EDB23A2D03D90024AD
:105310002546FFF785FE009732780C232946204664
:10532000FFF764FF0834E4B2761C30780028E7D138
:10533000F8BD000070B50A4D0A4E002435F814007F
:105340003188884201D2012200E00022002120465B
:10535000FFF79AFE641CE4B2802CEFD370BD00000E
:10536000380200201000002030B500230E4A01242E
:1053700011B1C2F8AC4201E0C2F8AC325FF00001FA
:10538000C2F8B832050602D5C2F8B44201E0C2F84C
:10539000B432C2F8B8424006491C000EC9B208290E
:1053A000EED3C2F8AC4230BD008041420020044937
:1053B00002460A54401CC0B20928FAD370470000C4
:1053C0008C3100202DE9F84301258146ADF80050CD
:1053D0001F4800264670ADF800501E4C80464FF620
:1053E000FF772BE0BDF8000010EA090F02D0C4F8E7
:1053F000B05201E0C4F8B062102002F0CFFBC4F854
:10540000A052052002F0CAFBC4F8A062052002F0F9
:10541000C5FBC4F8A052D4F83C0230B198F8011092
:10542000BDF80020114388F80110102002F0B6FBEF
:10543000BDF8000007EA4000ADF80000BDF800002C
:10544000FF28CFD9BDE8F843102002F0A7BB000029
:105450008C310020000042422DE9F00F6B480068BB
:10546000C0F180046A480068C0F1800169480068A2
:10547000C0F180036FF01300844202DD142C00DAC7
:105480000024814202DD142900DA0021834202DD7A
:10549000142B00DA0023604800689FED600ADFF8F3
:1054A0008091604D604E00287DD0604F6248634A15
:1054B000D7F800C0DFED5E2ADFED5E0AD0ED1C1AE2
:1054C00090ED1B1A12784FF0000AB7EE002ABCF1DB
:1054D0000B0F17D0BCF10C0F42D080ED120A00BFA9
:1054E00090ED1B1ADFED560A01EE904A21EE202ABC
:1054F000F8EEE11A62EE211AC9ED001A7AB3012A18
:105500005DD064E090ED113ADFF8388133EE022A85
:1055100012EE10CA80ED112AC445E1D131EE221AF3
:10552000C7F800A0DFF820C111EE107A80ED110A53
:1055300080ED1B1A674503DD9FED441A80ED1B1AB1
:10554000022ACDD071EEA00ADFF804C110EE907AE5
:10555000C0ED1C0A6745C3DDDFED3E0A2CE02EE0FE
:1055600090ED123ADFF8F08033EE022A12EE10CA04
:1055700080ED122AC445B3D131EE621AC7F800A0FB
:10558000DFF8D8C011EE107A80ED120A80ED1B1AF8
:10559000674503DA9FED321A80ED1B1A022A9FD06D
:1055A00031EEE01A00E02BE011EE107ADFF8B4C023
:1055B00080ED1C1A674593DAC0ED1C0A90E700EEF7
:1055C000103AB8EEC00A20EE010A20EE200A85ED5E
:1055D000000A90ED1C0A60EE200A00EE101AB8EEE8
:1055E000C00A20EE800A00BF86ED000AB0EE401A25
:1055F000D5ED000A99ED000ABDE8F00FFBF75CBCA1
:1056000089ED000A85ED000AEEE700002801002080
:105610002C010020240100200002002000000000D6
:10562000380100203C01002040010020340100200E
:105630000AD7A33DCDCC4C3E4C000020D900002021
:105640000000003C0000A041A4709D3FA4709D3F5D
:10565000AE471140AE47114000007041CDCCCC3D6B
:10566000CDCCCC3DCDCC4C3E70B5FFF79FFE00F0CD
:1056700071F80B480B4BB0F803100A48083341800F
:105680000020012413F8105000F101006D1E04FAEF
:1056900005F20A42C0B202D01028F3D3002070BD38
:1056A0008C310020FC01002010B5FFF7DDFF1A4906
:1056B0001B4B1D4C08601949CA791A60194B0A7AAC
:1056C0001A604B792360194B8979196018490123B5
:1056D00004281CD04868002818D0762A16DA154805
:1056E0000178002912D11449037000200870144871
:1056F0009FED120A80ED000A124801781248022933
:1057000007D09FED120A00BF80ED000A10BD4B606C
:10571000E3E79FED0F0AF7E7340100208C3100200A
:1057200024010020280100202C010020300100204D
:10573000FC0100201901002018010020CDCC4C3EB6
:10574000B8000020D9000020BC0000209A99993EA2
:10575000DB0F493F2DE9FC4100268DF80060012454
:10576000ADF80440244DC5F8A862244F3878FFF7FF
:1057700029FE7878FFF726FE02208DF80000DFF87A
:1057800080804FF6FF772FE0ADF8044020E000BFA7
:10579000C5F8A042052002F001FAC5F8A062052074
:1057A00002F0FCF9C5F8A042D5F83C0250B19DF8D2
:1057B0000010BDF8042018F8011011439DF80020D6
:1057C00008F80210BDF8040007EA4000ADF8040034
:1057D000BDF80400FF28DBD9102002F0DFF99DF8A6
:1057E0000000401C8DF800009DF800000928CBD374
:1057F000C5F8A842BDE8FC8100004242FC0100203F
:105800008C310020704700002DE9F04700261B4C2A
:1058100035463146C4F89462194AC2F8906202F5DE
:10582000247204F52574FBF741FB01271760FBF791
:105830003DFB2160FBF73AFB2760A4F52574FBF7DD
:1058400035FB1160FBF732FBDFF83890884600BF6C
:10585000C4F89482FBF72AFB0420FBF7CFFE010972
:1058600029F815106D1CEDB2C4F89472FBF71EFBFD
:10587000761CF6B2802EEBD3BDE8F08700004042E4
:1058800000004142380200200021022807D00328EE
:105890000BD004280BD005280BD0002070474FF008
:1058A0008042506A516200B27047044A02E0044AE2
:1058B00000E0044A1068116000B270472404004000
:1058C00024080040240C004010B551EC100B2DEDC5
:1058D000068BB0EE438AF0EE629AB0EE42AAB0EECA
:1058E000619AF0EE418A03F05FF8BDEECA0A1549ED
:1058F00010EE102ABDEEE90A0860C1ED018A10EE33
:10590000103A81ED059AC1E9022381ED048A9900DC
:10591000514300EE101A0C49B8EEC00A81ED000A9E
:105920009FED0A0A0A4928EE000A81ED000A09499A
:1059300008600948C0ED008A084880ED009ABDEC77
:10594000068B10BD2C07002044010020DB0F4940CE
:10595000480100204C01002050010020540100208B
:1059600010B5324C4FF4AD700A2120600920FCF7CD
:10597000A1F9216890FBF1F0C1B22D480529017011
:1059800001D905210170C8B29FED2A1A9FED2A3A6C
:10599000062849D2DFE800F003101B262F3AF0EE6C
:1059A000411A9FED263AF2EE0A2AB3EE0E2A9FED37
:1059B000241A9FED240B33E09FED243AF2EE0A2ADD
:1059C000B3EE0E2ADFED221A9FED220B28E0F0EE57
:1059D000411AF2EE0A2AB3EE0E2A9FED201A9FED2D
:1059E000200B1DE0F2EE0A2AB3EE0E2AF0EE411A69
:1059F0009FED1D0B14E0F0EE411AF2EE0A2AB3EE11
:105A00000E2A9FED1B1A9FED1B0B09E09FED1B3A21
:105A10009FED1B0BF2EE0A2AB3EE0E2AF0EE411AAE
:105A2000BDE81040FFF750BF10BD00001C01002072
:105A3000D900002000000000B81E853D9A99993DCC
:105A40007B14AE3D022B8716D9CEB73F8FC2753D72
:105A5000E17A943E0000000000000000BC74133E98
:105A6000000000806ABCC43F000000A0EFA7C63F52
:105A7000E926313E000000C09DEFC73FC520303D04
:105A8000000000E07A14CE3F70470000F0B5174EDA
:105A9000174F059D44F2A014002803DA3460204417
:105AA000386002E03C60201A30601248002903DAB6
:105AB00044632144816302E08463611A41630E48B8
:105AC000002A03DA44631119816302E08463A11A96
:105AD0004163002B03DA04641919C16302E0C46353
